:020000040800F2
:1000000000400120450200088D0200083930000838
:100010003F300008453000084B3000080000000069
:100020000000000000000000000000001146000871
:100030008D020008000000007F4600088F4600087F
:100040008D0200088D0200088D0200088D02000854
:100050008D0200088D0200088D0200088D02000844
:100060008D0200088D0200088D020008D1120008E0
:10007000DD120008E9120008F5120008011300085B
:100080000D130008191300088D0200088D020008E6
:100090008D0200088D0200088D0200088D02000804
:1000A0008D0200088D0200088D0200088D020008F4
:1000B0008D0200088D0200088D0200088D020008E4
:1000C0008D0200088D0200088D020008CD10000886
:1000D000D91000088D0200088D0200088D0200086A
:1000E0008D0200088D0200088D0200088D020008B4
:1000F0008D020008000000008D020008E5100008D5
:100100008D0200088D020008251300083113000835
:100110003D130008491300085513000800000000B3
:100120008D02000800000000000000000000000038
:1001300000000000000000005FF808F10348044BD5
:10014000834202D0034B03B11847704720090020B7
:1001500020090020000000000548064B1B1AD90F9B
:1001600001EBA301491002D0034B03B118477047BC
:1001700020090020200900200000000010B5064CD6
:10018000237843B9FFF7DAFF044B13B10448AFF308
:1001900000800123237010BD200900200000000012
:1001A0009891000808B5054B1BB105490548AFF308
:1001B0000080BDE80840FFF7CFBF00BF000000008F
:1001C0002409002098910008A3F5803A704700BFE9
:1001D000174B002B08BF134B9D46FFF7F5FF00217F
:1001E0008B460F461348144A121A06F00FFF0E4BA7
:1001F000002B00D098470D4B002B00D098470020D3
:10020000002104000D000D48002802D00C4803F026
:100210007BFE06F0BFFF2000290004F077F904F010
:1002200071F800BF00000800000000005D440008F5
:100230000040012020090020F0290020093F00088B
:1002400000000000002103E00B4B5B5843500431D9
:100250000A480B4B42189A42F6D30A4A02E000239E
:1002600042F8043B084B9A42F9D301F0B3FFFFF781
:10027000AFFF704770470000A491000828010020DC
:100280002009002020090020F0290020FEE70000BE
:1002900010B5204994B00A6812F0020202D0002082
:1002A00014B010BD01244B6A002843F080534B6208
:1002B0004B6A194903F080530193019B0B684FF47B
:1002C000801023F4C05343F400630B6014BF052374
:1002D0002346022108934FF48033CDE910134FF4E5
:1002E0000003CDE9120307A807940A9201F010FA5F
:1002F0000028D4D10F220323CDE904000690214623
:1003000002A8CDE9022301F051FCB0FA80F04009C7
:10031000C6E700BF003802400070004030B51E4BF9
:1003200095B05A6A1D4D42F080525A625B6A0024B1
:1003300003F080530193019B2B68012023F4C053E9
:1003400043F400632B60022310224FF4002CCDE90C
:100350000734CDE910344FF40003CDE90A0207A8B1
:10036000CDE912C301F0D4F998B96B6813F010030A
:10037000FBD10F21032202A8CDE902120121CDE910
:100380000433069301F012FCB0FA80F0400915B076
:1003900030BD2046FBE700BF00380240007000403F
:1003A00008B50120FFF774FF28B9FFF7B7FF10B9B0
:1003B000014803F0FBFC08BD84810008F7B500F09C
:1003C000C9FC041E26DB144F57F8240010B3134E4B
:1003D000A50173591A68120606D5DB68190603D5FC
:1003E0000F4B01211B68984773591A68920608D56C
:1003F000DB68980605D50A4B00211B6857F82400D6
:10040000984773591A68110704D55A69D20744BF2F
:100410005B68019303B0F0BD800A00204009002012
:100420003C0900200148FFF7C9BF00BF0050004051
:100430000148FFF7C3BF00BF004C00400148FFF771
:10044000BDBF00BF004800400148FFF7B7BF00BF75
:10045000004400400148FFF7B1BF00BF0038014031
:1004600001234109034A00F01F00834042F8213074
:10047000704700BF00E100E001220649430900F097
:100480001F008240203341F82320BFF34F8FBFF37A
:100490006F8F704700E100E0034B19604168034B28
:1004A00043F82120704700BF3C090020800A00204B
:1004B00030B4D0E90035274883422CD00AD8A0F5C3
:1004C0000060834221D000F58060834220D0002468
:1004D000204608E02048834220D000F5684083424F
:1004E000F5D125201D4C1E4BAD015B59E2B1DA68F8
:1004F000B9B942F02002DA601A4B00F110029B6891
:1005000043F8224030BCFFF7ABBF2620164CEAE789
:100510002720164CE7E73020154CE4E73120154C36
:10052000E1E742F08002E6E7DA6849B922F020020A
:10053000DA60DB6813F0800F09D130BCFFF79CBF95
:1005400022F08002DA60DB6813F0200FF4E730BCA1
:10055000704700BF004C00400050004055040008A8
:100560004009002000ED00E0490400083D040008B7
:10057000310400082504000838B5044645682046C3
:1005800000F08AFB0028FAD0054BAD015B59E26808
:1005900058680AB9C0B238BDC0F30800FBE700BF15
:1005A0004009002070B505460C464668284600F014
:1005B00089FB0028FAD0054BEA68B6019B5912B9AD
:1005C000E4B25C6070BDC4F30804FAE7400900209F
:1005D00091FAA1F3B3FA83F391FAA1F130B5B1FA2C
:1005E00081F1032504685B0005FA03F3490024EA5E
:1005F00003038A401A43026030BD000000B5334B4C
:1006000089B007285ED8DFE800F004101B26313CD3
:100610004752DA692E4842F00102DA61DB6903F0E1
:1006200001030093009B09B000BDDA69294842F03C
:100630000202DA61DB6903F002030193019BF2E736
:10064000DA69254842F00402DA61DB6903F0040349
:100650000293029BE7E7DA69204842F00802DA6178
:10066000DB6903F008030393039BDCE7DA691C48AA
:1006700042F01002DA61DB6903F010030493049B7B
:10068000D1E7DA69174842F04002DA61DB6903F02A
:1006900040030593059BC6E7DA69134842F08002E0
:1006A000DA61DB6903F080030693069BBBE7DA6936
:1006B0000E4842F02002DA61DB6903F02003079361
:1006C000079BB0E70A4803F071FB00BF0038024007
:1006D000000002400004024000080240000C0240FA
:1006E0000010024000180240001C024000140240AA
:1006F00098810008431C10B504D1772206490748A9
:1007000003F02CF94FF4707100F00F0400F058F969
:100710000120A04010BD00BFEE810008F981000853
:100720004B1C70B504460E46018218D0C1F303106D
:10073000FFF764FF05463046FFF7DCFF238A084ACF
:1007400003F00F0352F823306561A36105F1100334
:10075000636005F1180328352060A360E56070BD73
:10076000A08E0008B0F9100000F0BAB903460A469E
:10077000D3E905010AB9FFF72BBF0122FBE708B552
:1007800000F0CEFC002008BD38B503F0A7F9124BED
:10079000124913485C6A02680B889B1A2344B3F51C
:1007A000803F16D34FF47A75B3FBF5F205FB123395
:1007B00005E00132A3F57A73B3F57A7FF9D20460CC
:1007C000084C0B8023681344236003F09DF92068D4
:1007D00038BD0022F0E700BF000C0040940A002062
:1007E0009C0A0020980A0020704770474FF6FF725D
:1007F000032310B58EB0CDE909230023CDE90B33D7
:10080000454C0D93E36909A943F00103E361E369F2
:10081000424803F001030193019B00F03DFEE369B0
:1008200009A923F00103E361E3693D4843F00203B2
:10083000E361E36903F002030293029B00F02CFEE4
:10084000E36909A923F00203E361E369354843F052
:100850000403E361E36903F004030393039B00F0E3
:100860001BFEE36909A923F00403E361E3692E4851
:1008700043F00803E361E36903F008030493049B76
:1008800000F00AFEE36909A923F00803E361E369C4
:10089000264843F01003E361E36903F01003059376
:1008A000059B00F0F9FDE36909A923F01003E3615A
:1008B000E3691F4843F04003E361E36903F0400349
:1008C0000693069B00F0E8FDE36909A923F04003C5
:1008D000E361E369174843F08003E361E36903F0F0
:1008E00080030793079B00F0D7FDE369124823F0CC
:1008F0008003E361E36909A943F02003E361E3694D
:1009000003F020030893089B00F0C6FDE36923F081
:100910002003E3610EB010BD003802400000024029
:100920000004024000080240000C02400010024097
:1009300000180240001C02400014024008B5FFF7F6
:1009400054FF01F04FFC00F00DFDFFF729FD01F011
:1009500049FCFFF74BFF00F0ABFCFFF745FF01221E
:10096000014B1A6008BD00BFA00A002091FAA1F354
:10097000B3FA83F391FAA1F130B5B1FA81F103250D
:1009800084685B0005FA03F3490024EA03038A4004
:100990001A43826030BD91FAA1F3B3FA83F391FA5E
:1009A000A1F130B5B1FA81F10325C4685B0005FA05
:1009B00003F3490024EA03038A401A43C26030BDAE
:1009C000B0F1FF3F2DE9F84380460E467FD0414B02
:1009D00000F00F02C0F3031053F82250C1F3831943
:1009E00001F00707FFF70AFEB9F10F0F0CBF032252
:1009F0004A4629460446FFF7B9FF032F5ED8DFE8D1
:100A000007F062642C02032395FAA5F2B2FA82F28F
:100A100003202168520000FA02F221EA020195FA4D
:100A2000A5F2B2FA82F252009340013F0B43012F2C
:100A3000236005D8636832074CBF2B43AB43636028
:100A4000C6F30112012A02D0022A18BF0022294649
:100A50002046BDE8F843FFF79EBF18F0080FC6F325
:100A6000832217D02B0A93FAA3F1B1FA81F193FAFA
:100A7000A3F34FF00F0CB3FA83F3406A89000CFA2A
:100A800001F19B0020EA010102FA03F30B436362C8
:100A90000223B9E795FAA5F3B3FA83F3016A0F20AD
:100AA0009B0000FA03F321EA030195FAA5F3B3FAD8
:100AB00083F39B009A400A432262E9E7D522064964
:100AC000064802F04BFF00239EE701239CE7BDE8A8
:100AD000F88300BFA08E000841820008518A0008F8
:100AE000431C70B50D4634D01A4B00F00F02C0F312
:100AF000031053F82240FFF781FD94FAA4F194FA11
:100B0000A4F2B1FA81F106688AB10323B2FA82F243
:100B100049008B4033405200D340013B012B06D8A3
:100B2000EB1E022B436894BF2343A3434360013D64
:100B3000042D0CD8DFE805F00309030B090001229E
:100B40002146BDE87040FFF726BF0222F8E70022E9
:100B5000F6E770BDA08E00080FB407B5064B05AAD6
:100B60001B680649D868019202F0B7FE03B05DF831
:100B700004EB04B0704700BF0C0700204A82000855
:100B800003683E4A10B59342044636D13C4B5A693D
:100B900042F480425A615A6922F480425A611A6AC8
:100BA00022F480421A6240F2C331B4F91800FFF710
:100BB00007FF40F2C331B4F91A00FFF701FF236ABF
:100BC00023F40073B3F5807F05D140F2C331B4F94B
:100BD0002400FFF7F5FE236A23F48073B3F5007F4A
:100BE00005D140F2C331B4F92600FFF7E9FE002138
:100BF0006268244B43F8221010BD234A93420DD162
:100C00001F4B9A6942F400329A619A6922F40032C9
:100C10009A615A6A22F400325A62C4E71B4A93422C
:100C20000CD1174B9A6942F480229A619A6922F496
:100C300080229A615A6A22F48022EDE7144A934294
:100C40000CD10F4B9A6942F400229A619A6922F4FE
:100C500000229A615A6A22F40022DDE70D4A93428B
:100C6000A1D1074B9A6942F480129A619A6922F4E1
:100C700080129A615A6A22F48012CDE7003801404E
:100C800000380240800A0020004400400048004034
:100C9000004C0040005000404368094A9B01D35873
:100CA00082B01A68120706D5002201921A680192D2
:100CB0005A680192019A1868C0F3401002B0704758
:100CC000400900204368034A9B01D3581868C0F3C9
:100CD000C010704740090020034640681A68144954
:100CE00010B484010A519A6801EB80104260DA68FE
:100CF00082601A69C2605A6902611A6A82610022BE
:100D0000C2848284C2858285C261B3F91A20B2F19D
:100D1000FF3F0AD0B3F9183001330CBF04220C2274
:100D20000B195A6110BC01F026BA0822F8E700BF7F
:100D30004009002010B581600C46FFF7CDFF28B1B7
:100D40002146BDE810400248FFF706BF10BD00BFB6
:100D50004A8200080F4B984213D0A3F5744398427F
:100D600011D003F5806398420FD003F58063984259
:100D70000DD003F5806398420CBF04204FF0FF3084
:100D80007047002070470120704702207047032001
:100D9000704700BF003801402DE9F0470F4686B08C
:100DA0005A4904463846164601F0C6FF584980465F
:100DB000304601F0C1FF0146404601F09BFF534918
:100DC0000546384601F0CEFF51498246304601F0D3
:100DD000C9FF022F81460AD0032E08D002204B49BA
:100DE00001F0AAFF40450CD14A4802F0DFFF4FF066
:100DF0000108691C256007D141224749474802F094
:100E0000ADFD4FF00008F4E7454B9D4214D103F5CA
:100E100080331A6A42F480421A621B6A03F48043E8
:100E20000193019B2846FFF795FF606001303FD199
:100E3000A02239493B48E2E73B4B9D420BD103F5E9
:100E4000FA335A6A42F400325A625B6A03F400339E
:100E50000293029BE6E7354B9D420BD103F5F83335
:100E60005A6A42F480225A625B6A03F48023039335
:100E7000039BD7E72E4B9D420BD103F5F6335A6AFD
:100E800042F400225A625B6A03F400230493049B39
:100E9000C8E7284B9D42C5D103F5F4335A6A42F4A2
:100EA00080125A625B6A03F480130593059BB9E7CD
:100EB00051463846FFF784FD01213846FFF710FE02
:100EC00049463046FFF77CFD30460121FFF708FE1A
:100ED00000234FF4E1322046C4E90223C4E904337D
:100EE000236227836683FFF7F7FEB8F1000F0AD06D
:100EF0000122114B21461A604C22104806B0BDE871
:100F0000F04706F085B906B0BDE8F08724810008F7
:100F1000C480000874820008DE820008EB820008AA
:100F200000380140078300080044004000480040AA
:100F3000004C004000500040F00A0020A40A0020AD
:100F40001A4BD86810F4005018BF1868184B18BF17
:100F5000C0F38010DA6818BF80F00100910441BF2F
:100F60001B68C3F3801383F001031843114BDA6845
:100F7000920441BF1B68C3F3801383F0010318433D
:100F80000D4BDA68910441BF1B68C3F3801383F0F3
:100F900001031843094BDA68920441BF1B68C3F38D
:100FA000801383F001031843704700BF00380140ED
:100FB0000044004000480040004C00400050004009
:100FC000034A516A536A5B1A8342FBD3704700BFDE
:100FD000000C004010B5002486B01422214601A860
:100FE000009406F013F8694601A800F003FF0F23F0
:100FF000009901A8CDE9024401930594049400F0FE
:10100000D5FD10B1024802F0D1FE06B010BD00BF00
:101010001983000800B58FB00021342201A805F023
:10102000F5FF104B01A85A6A42F080525A625B6A7F
:1010300003F080530093009B00F09AFE10230121DF
:101040004FF440420193002301A8CDE90713CDE9F5
:10105000092300F05DFB10B1034802F0A7FE0FB0BA
:1010600000BD00BF003802404183000808B502F00F
:1010700035FD0121002000F0D7FABDE8084002F05C
:1010800043BD000038B5FFF75BFF0546D8B902F055
:1010900025FD00F0DDF801210B4C084600F0DCFADC
:1010A0002560FFF7B7FFFFF795FFFFF779F94FF4DA
:1010B000FA70FFF785FF00F0E3F801232360BDE835
:1010C000384002F021BD38BDA00A0020014B18684D
:1010D00000F0B0BEFC0A0020014B186800F0AABE68
:1010E000F80A0020014B186800F0A4BEF40A0020A2
:1010F000074B084A13601A69910707D5DA68920707
:1011000004D56FF002021A6101F03ABF704700BFC8
:10111000000C00400C0B002000487047E08E0008D7
:1011200030B589B001A903A800F064FE00F000FE0C
:10113000204B01905A6A204C42F008025A625A6AC7
:1011400002F008020292029A9A6942F008029A6139
:101150009A6922F008029A61A3F50B3323604FF0DD
:10116000FF33069AE360154BF2B9B0FBF3F3581E58
:101170000025606010482561A560656100F03BFFB7
:101180000F4B104A9B68C3F8F8204FF480420E4B77
:101190005A600948294600F053FF2268D36823F0BB
:1011A0000203D36009B030BD4000B0FBF3F001385A
:1011B000DEE700BF003802400C0B002040420F0069
:1011C00000ED00E0F110000800E100E0044800211B
:1011D0000268D36823F00203D36000F031BF00BF80
:1011E0000C0B0020014B586A704700BF000C0040F8
:1011F0006FF00202044B1B6858631A61DA6842F010
:101200000202DA60704700BF0C0B00206FF0020290
:10121000054B1B681A615A6942F002025A61DA688A
:1012200042F00202DA6070470C0B0020034B1A6890
:10123000D36823F00203D360704700BF0C0B00207B
:101240006FF00202014B1B681A6170470C0B002003
:10125000064B074A1B68596A11605A6B054B1A60A6
:10126000054BDA68054B1A60704700BF0C0B002075
:10127000080B0020040B0020000C0040000B002095
:10128000064B074A1B6812685A62064A12685A637C
:10129000054B1A68054BDA60704700BF0C0B002045
:1012A000080B0020040B0020000B0020000C004065
:1012B0001FB5054B0FCB8DE80F00684604F032F9DF
:1012C000024B186005B000BDE88E0008D80B002066
:1012D000014B586800F096B84C0B0020014BD868C1
:1012E00000F090B84C0B0020014B586900F08AB810
:1012F0004C0B0020014BD86900F084B84C0B002047
:10130000014B586A00F07EB84C0B0020014BD86AA4
:1013100000F078B84C0B0020014B586B00F072B80D
:101320004C0B0020014BD86B00F06CB84C0B00202C
:10133000014B586C00F066B84C0B0020014BD86C88
:1013400000F060B84C0B0020014B586D00F05AB80B
:101350004C0B0020014BD86D00F054B84C0B002012
:10136000704700000B4B10B51A68032042F00402CE
:101370001A601A6842F002021A6000F00DF80F209D
:10138000FFF7FDF9044618B9FFF7EAFF204610BD44
:101390000124FBE7003C024007490302CA6803F44A
:1013A000E06322F4E0621204120C134343F0BF63C3
:1013B00043F40033CB60704700ED00E010B590F8C7
:1013C0002120022A03D004228263012010BD02687A
:1013D000436B116821F00E011160116821F00101C9
:1013E00011600121D0E90F4202F01C0201FA02F261
:1013F0006260002280F8211080F8202003B1984715
:101400000020E3E770B40424C16B026C0E6802F0A4
:101410001C020368944034421D680ED015F0040F7E
:101420000BD01A6892065EBF1A6822F004021A6096
:10143000C36A4C6073B370BC1847022494403442B2
:1014400012D015F0020F0FD01A68950606D41A684C
:1014500022F00A021A60012380F8213000234C6038
:1014600080F82030836AE5E708249440344211D0A4
:101470002C070FD51C6824F00E041C60012303FA0E
:1014800002F24A60836380F82130002380F8203024
:10149000036BCFE770BC70472DE9F74F00224FF088
:1014A0000F09DFF878C15E4C0B6833FA02F502D100
:1014B00003B0BDE8F08F012505FA02F818EA03032E
:1014C00000F09D8003264D68570025F0100A06FAAB
:1014D00007FE0AF1FF36012E0FD8866826EA0E0BAA
:1014E000CE68BE4046EA0B068660466826EA0808D3
:1014F0002E09964046EA08064660C668BAF1020F11
:1015000026EA0E088E6806FA07F646EA0806C6605E
:1015100014D14FEAD20800EB880802F0070AD8F885
:1015200020604FEA8A0A09FA0AFB26EA0B0B0E69C9
:1015300006FA0AF646EA0B06C8F82060066826EAAC
:101540000E0E05F00306BE4046EA0E060660EE00EB
:1015500055D5DCF8206022F0030746F00106CCF8F0
:101560002060DCF8206007F1804706F00106019654
:1015700007F5803702F0030E019E4FEA8E0EBE681B
:1015800009FA0EF826EA0808264EB04239D006F5C8
:101590008066B04237D006F58066B04235D006F599
:1015A0008066B04233D006F58066B04231D006F591
:1015B0008066B0422FD006F58066B04214BF072681
:1015C000062606FA0EF646EA0806BE602668EF030F
:1015D00054BF9E431E4326606668AF0354BF9E43BC
:1015E0001E436660A668EF0254BF9E431E43A6607A
:1015F000E668AD0254BF26EA03033343E3600132D9
:1016000052E70026DDE70126DBE70226D9E70326BD
:10161000D7E70426D5E70526D3E700BF0038024008
:101620000004014000000240094A0129136823F028
:10163000030343EA00031360064A136923F004031B
:10164000136101D130BF704740BF20BF20BF70473A
:101650000070004000ED00E00B4A0129136823F000
:10166000030343EA00031360084B1A6942F00402C3
:101670001A6105D130BF1A6922F004021A6170475D
:1016800040BF20BF20BFF6E70070004000ED00E043
:101690001C4B82B09A6812F0F00F0CD000221A494D
:1016A0000B6823F0010313430B60086800F001008E
:1016B000504002B070475A6A144912F0805F0FD050
:1016C0000A6802F4C052B2F5C05FE7D1B0F5404FEE
:1016D000E4D10D4A136843F0040313600122DEE7EE
:1016E0005A6A42F080525A625A6A02F0805201925B
:1016F000019A0A68596A02F4C05221F08051596275
:10170000E1E700BF00380240003C024000700040AA
:101710002DE9F743044618B9012003B0BDE8F08372
:101720008D4B02689E689F68D00706F00C0607F490
:1017300080374AD42368990700F18E802368D80641
:1017400035D5002E40F0D980834F3B68990502D5EE
:10175000A369002BE0D07B68256A03F460439D42B7
:1017600040F2B8802846FFF793FF0028D4D17B6869
:1017700023F460432B437B607B68E26923F07F4363
:1017800043EA02637B60744B74499A684FF40043E8
:101790006D0BC2F303128A5C0135AB40D340704A33
:1017A0001360704B1868FEF7EAFF0028B5D1236874
:1017B000180700F1DB802368590700F1FB80636A9A
:1017C000002B40F063810020A7E7082E02D00C2EEA
:1017D00007D137B11B689A03ACD56368002BA9D138
:1017E0009AE763685C4D012B12D12B6843F4803378
:1017F0002B60FEF7C9FF8046574D2B689B0399D499
:10180000FEF7C2FFA0EB08006428F6D9032084E7A6
:10181000A3B92B6823F480332B602B6823F4802337
:101820002B60FEF7B1FF80462B68980382D5FEF748
:10183000ABFFA0EB08006428F6D9E7E7052B2B687F
:1018400003D143F480232B60CFE723F480332B6054
:101850002B6823F48023CBE7042E02D00C2E10D16A
:101860007FB93D4A1368990703D5E368012B7FF4DC
:1018700053AF5368216923F4F85343EA01235360BB
:101880005CE7E268384BB2B101221A60FEF77CFFD8
:101890000746314D2B689A0707D56B68226923F4F8
:1018A000F85343EA02236B6048E7FEF76DFFC01B65
:1018B0000228EFD9AAE71A60FEF766FF0746264D11
:1018C0002B689B077FF53AAFFEF75EFFC01B02282F
:1018D000F6D99BE77B68284623F460432B437B6063
:1018E0007B68E26923F07F4343EA02637B60FFF792
:1018F000CFFE00283FF447AF0EE7A2691A4BE2B1D2
:1019000001221A62FEF740FF0746134D2B689A0525
:101910000DD56B68226A23F4604313436B606B68D8
:10192000E26923F07F4343EA02636B603FE7FEF71F
:101930002BFFC01B0228E9D968E71A62FEF724FFD3
:101940000746054D2B689B057FF531AFFEF71CFF61
:10195000C01B0228F6D959E700380240008F000862
:10196000300100202C010020000047426269724BC8
:1019700082B10122C3F88026FEF706FF07466F4DAD
:101980006B6B9A073FF517AFFEF7FEFEC01B0228F0
:10199000F6D93BE7C3F88026FEF7F6FE0746674D0B
:1019A0006B6B9B077FF507AFFEF7EEFEC01B0228AF
:1019B000F6D92BE7614B5A6AD00027D401275A6A1F
:1019C00042F080525A625B6A03F080530193019B9C
:1019D0005B4D2B68D9051BD5A368584D012B28D129
:1019E0006B6B43F480736B63FEF7CEFE41F2883974
:1019F0008046524D6B6B9B0541D5002F3FF4DFAE07
:101A00004E4A536A23F080535362D8E60027DFE73B
:101A10002B6843F480732B60FEF7B6FE80462B687C
:101A2000DA05D9D4FEF7B0FEA0EB08006428F6D999
:101A3000ECE6B3B96B6B41F2883923F480736B63C6
:101A40006B6B23F480636B63FEF79EFE80466B6BCB
:101A50009805D2D5FEF798FEA0EB08004845F6D9C8
:101A6000D4E6052B6B6B03D143F480636B63B7E75C
:101A700023F480736B636B6B23F48063B3E7FEF72F
:101A800083FEA0EB08004845B4D9BFE60C2E3AD03F
:101A90000022022B284B1A6627D1FEF775FE064658
:101AA000264D2B6899011AD4AA68D4E90A3122F488
:101AB0007D020B431343226B204C13430122AB6086
:101AC0001D4B1A66FEF760FE054623689A013FF536
:101AD0007AAEFEF759FE401B0228F6D996E6FEF7CD
:101AE00053FE801B0228DCD990E6FEF74DFE05462A
:101AF000124C23689B017FF566AEFEF745FE401B46
:101B00000228F6D982E6012B3FF406AE0B4B98680B
:101B1000A36A00F480329A427FF4FEADE26A00F4D8
:101B2000701393427FF4F8AD236B00F44000C01AA9
:101B300018BF0120F1E500BF000047420038024015
:101B40000070004008B5154B9A6802F00C01082996
:101B50001FD00C2909D004291DD04FF400405B6828
:101B6000C3F342330133984012E09B680C4813F4EE
:101B70008033C2F38341415C14BF0A480A48C2F370
:101B8000815218BF0023A1FB0001013206F0B2F818
:101B900008BD0448FCE70448FAE700BF00380240EB
:101BA000108F000800127A000024F4002DE9F041A3
:101BB00004460D4610B90120BDE8F081574B1A6864
:101BC00002F001028A422AD32268960738D4D0074D
:101BD0003ED4524B1A6802F00102AA4200F28C80F5
:101BE0002268510700F19180130707D54C4A2169FB
:101BF000936823F4605343EAC1039360FFF7A2FFA5
:101C0000BDE8F041464B474A9B68C3F30313D35CDE
:101C1000D840454B1860454B1868FEF7B0BD012908
:101C200002BF1A6842F004021A601A6822F0010228
:101C30000A431A601B6803F001038B42BBD1C3E760
:101C40003749A0688B6823F0F00303438B60BEE73D
:101C50006168334B02291A681CD112F4003FAAD0E4
:101C60009A6841F2883822F003020A439A60FEF72C
:101C70008BFD63680646022B294F18D1BB6803F021
:101C80000C03082BA5D0FEF77FFD801B4045F5D93E
:101C9000032091E7032902D112F0007FDFE7012939
:101CA00002D112F0020FDAE712F4007FD7E7032B1C
:101CB0000AD1BB6803F00C030C2B8AD0FEF764FD3D
:101CC000801B4045F5D9E3E7012B10D1BB6803F039
:101CD0000C03042B3FF47DAFFEF756FD801B4045FF
:101CE000F4D9D5E7FEF750FD801B4045D0D8BB683E
:101CF00013F00C0FF6D16CE71A6822F001021A609B
:101D00001B68DA077FF56CAF55E70549E0688B681B
:101D100023F4E06303438B6066E700BF003C0240AE
:101D200000380240008F0008300100202C01002004
:101D3000044B054A9B68C3F30223D35C034A106833
:101D4000D840704700380240F88E0008300100206B
:101D5000044B054A9B68C3F3C223D35C034A106853
:101D6000D840704700380240F88E0008300100204B
:101D70001F2303601E4B1A6851034EBF05221A68C9
:101D8000C2F3004242601A6802F00102C2605A685F
:101D9000C2F3042202611A68C2F3002282615A6807
:101DA000120EC2615A6802F4604202625A6B520516
:101DB0004EBF05235B6BC3F3002383600C4B5A6B50
:101DC00002F0010242611A6812F0807F0CBF01220A
:101DD000022242629A6802F4803282629A6802F4B5
:101DE0007012C2629B6803F440030363704700BF34
:101DF000003802400F2303600B4B9A6802F0030285
:101E000042609A6802F0F00282609A6802F4E0622E
:101E1000C2609B68DB0803F4E0630361034B1B684B
:101E200003F001030B60704700380240003C0240A1
:101E300070470000F0B5036804465D689A6885B095
:101E400056064FEA9211C2F3801708D4D60706D57A
:101E50006E0604D5036C05B0BDE8F0401847960740
:101E600004D5280602D52046636CF4E741EA5211F6
:101E700002F4807001F0010101434FEA521656D07E
:101E8000AA0654D577B194F851200021032A48D0EE
:101E9000626D42F0040262650091DA6800929A680D
:101EA0000092009AF1070CD5626D42F00102626562
:101EB000002202929A6802921A6822F040021A6086
:101EC000029A40B1626D42F00802626500220392FC
:101ED0009A680392039A626D4AB35A6822F0E0024C
:101EE0005A60012284F85120AA0722D05A68E06C77
:101EF00022F003025A6040B1104B4363FFF75EFAD1
:101F000018B1636D43F040036365A06C78B10B4B6F
:101F10004363FFF753FA50B1636D43F040036365C9
:101F200005E00191DA6801929B680193019B05B07D
:101F3000F0BD2046FFF77CFFF9E700BF411F000816
:101F400008B50023406AC387C386FFF771FF08BD49
:101F5000B0F1804F03680ED01D4A90420BD002F5BD
:101F60008062904207D002F58062904203D002F571
:101F70007C42904226D14A6823F07003B0F1804F32
:101F800043EA02030ED0124A90420BD002F580625F
:101F9000904207D002F58062904203D002F57C4265
:101FA000904203D1CA6823F4407313430A6923F0B3
:101FB0008003134303608B68C3620B688362012351
:101FC00043617047034A9042ECD002F58062E7E734
:101FD00000040040000C014010B50124036A01F028
:101FE0001F018C4023EA04030362036A8A401A43F8
:101FF000026210BD704710B50446F0B190F8393058
:1020000003F0FF021BB980F83820FFF7F3FF02232B
:10201000206884F83930211DFFF79AFF0123002042
:1020200084F83E3084F83A3084F83B3084F83C3011
:1020300084F83D3084F8393010BD0120FCE7000001
:1020400008B529B990F83A30012B1DD001203AE0AB
:10205000042907D190F83B30012BF7D1022380F8F7
:102060003B3014E0082907D190F83C30012BEDD12A
:10207000022380F83C300AE090F83D30012BE5D196
:10208000022380F83D3002E0022380F83A300068F5
:102090000122FFF7A1FFB0F1804F0AD00A4B98420E
:1020A00007D003F58063984203D003F5803398424C
:1020B00004D1836803F00703062B03D0036843F0C1
:1020C00001030360002008BD0004004010B5044671
:1020D0000268C168136923F440530B43136183689A
:1020E0000069D1680343606921F416410343E06944
:1020F00021F00C0103430B43D3605369A16923F41E
:1021000040730B4353611A4B9A4220D1FFF720FED4
:102110001923E1695843D4E90023B1F5004F4FF08A
:10212000640117D15B00B0FBF3F0B0FBF1F401FBED
:102130001400C3003233B3FBF1F303F007015B007B
:1021400001EB041103F4F8730B44936010BDFFF727
:10215000EFFDDDE79B00B0FBF3F0B0FBF1F401FB1A
:1021600014031B013233B3FBF1F303EB0413ECE76D
:1021700000380140704710B5044640B390F839303C
:1021800003F0FF021BB980F83820FFF7F3FF242388
:10219000226884F83930D368204623F40053D36092
:1021A000FFF794FF236800201A6922F490421A6115
:1021B0005A6922F02A025A61DA6842F40052DA605F
:1021C0002023E06384F8393084F83A3010BD0120D0
:1021D000FCE70000014A024B9A60704700000008CB
:1021E00000ED00E0184A936803F00C03082B28D098
:1021F0000BD863B1154B144A15499268C2F3031208
:102200008A5CD340134A136070470C2B07D04FF4FD
:1022100000435268C2F3423201329340EBE79168C7
:10222000936892680C48D203C1F38341415C54BF68
:10223000064A0A4AC3F3815351430133B1FBF3F316
:10224000D9E7064BD7E700BF003802400024F4006E
:10225000008F000830010020108F000800127A0063
:102260000368012200211B691847002203681146F8
:102270001B6918476FF01500704780F83413002071
:10228000704780F850120020704790F83403704770
:1022900090F85002704700207047012070476FF09F
:1022A0001C0070470A4B10B5036048330446C0F861
:1022B000E430D0F8380310B103685B68984704F540
:1022C000407002F0B3F8204600F0E2FB204610BD5B
:1022D000248F0008A0F1E400FFF7E4BF10B5044626
:1022E000FFF7E0FF20464FF44F7102F02EF8204632
:1022F00010BDA0F1E400FFF7F1BF10B40168D0E910
:102300000132541001EB6200D20748BF0A5910BCD9
:1023100048BFD358184700207047012070476FF01E
:102320001C007047D0F8380308B520B100F0B6FAA9
:10233000003818BF012008BD30B5002487B0CDE9B2
:10234000004402AB0ECB054600F05CFB85F836433B
:1023500007B030BD30B50123002487B0CDE900437C
:1023600002AB0ECB054600F04DFB85F8354307B0B8
:1023700030BD10B5044601F0B1FBD4E940239A42C8
:1023800012BF002494F8084184F0010401F0BCFB62
:10239000204610BD38B500F5407400F5FA752046AA
:1023A00002F00EF82846FFF7E4FF20B1204602F0C5
:1023B00023F8002038BD204602F01EF8012001F06D
:1023C000C6FFECE7A0F1E400FFF7E4BF38B505462F
:1023D000E830FFF7CEFF80F001042846E4B2FFF7B3
:1023E000A1FF18B144F40054204638BD95F8FC22F2
:1023F00044F010031BB2824208BF1C46F4E7A0F170
:10240000E400FFF7E3BF000038B504460D4601F0D5
:1024100065FBD4F800312A78E2540133B3F5807FAC
:1024200005D94FF4AF720C490C4801F097FA08BF78
:10243000002394F80821C4F800312AB1C4F804310B
:10244000BDE8384001F060BBD4F804219A4204BFD3
:10245000012384F80831F3E7AC830008BD8300084A
:1024600070B504460E4601F039FBD4E940239A4288
:1024700002D194F80851B5B1E35C3370D4F804315B
:102480000133B3F5807F05D94FF4AF72084909488D
:1024900001F064FA4FF0000208BF13460125C4F8AA
:1024A000043184F8082101F02FFB284670BD00BFDD
:1024B000AC830008BD830008C36810B52BB94FF486
:1024C000FD720349034801F049FABDE8104018477E
:1024D0000B8400081684000884B070B5064605AC6D
:1024E00006F5497584E80E0001F0F8FA94E80F004B
:1024F00085E80F00D6F8303343B147F6FF71304618
:10250000FFF764FF10B12846FFF7D6FFBDE8704023
:1025100004B001F0F9BAA0F1E400FFF7DDBF08B59F
:10252000D0F830331BB100F54970FFF7C5FF08BD87
:1025300073B50446E830FFF71CFF064694F8F03107
:102540007BB9204600F03CFA58B1204600F0D2FAA0
:102550000DF107018DF8070004F1E800FFF754FFC3
:10256000ECE794F836332BB194F8F03113B12046F0
:10257000FFF7E2FE56B104F1E800FFF7FAFE28B9D2
:10258000204602B0BDE87040FFF7C9BF02B070BD81
:1025900010B5044686B001F0A1FA94F8BC30BBB186
:1025A00094F83633A3B92046FFF7C2FF94F8F03110
:1025B00073B90A4A0193CDE90323094B02940093AE
:1025C00002AB0ECB204600F01DFA012384F836330F
:1025D00006B0BDE8104001F097BA00BF31250008F1
:1025E000FB22000838B50446002500F0A5F90F4B82
:1025F000C4E97A5523604833C4F8E430C4E9BD55D2
:1026000084F8F05184F8FC5204F5407001F0D0FEDB
:1026100001232046C4F83053A4F8343384F83653E9
:10262000C4F83853FFF7B4FF204638BD248F0008A4
:102630002DE9F8430746894615468AB307F54070E9
:1026400001F0BEFE07F1E800FFF793FEB8B90446BB
:1026500007F1E800FFF78DFE40B909EB040107F12F
:10266000E8000134FFF7FCFEA542F1D13846FFF740
:102670008FFF07F5407001F0BFFE204608E097F895
:10268000343307F540702BB901F0B6FE6FF00A0045
:10269000BDE8F88301F0B0FE012001F058FECDE75F
:1026A0001046F5E7A0F1E400FFF7C2BF70B504469D
:1026B0000E4600F5407001F083FE3146204600F0E2
:1026C0002CFA2046FFF764FF04F5407001F094FEF9
:1026D000002070BDA0F1E400FFF7E8BF73B5044629
:1026E00090F8FC52204600F07CF960B10DF1070132
:1026F00004F5FA70FFF7B4FE28B120469DF80710E4
:1027000000F0FBF9EEE794F835333BB104F5FA70CD
:10271000FFF72FFE10B12046FFF71CFE65B194F8BD
:10272000FC324BB92046FFF7FDFD28B9204602B028
:10273000BDE87040FFF7F3BE02B070BDF8B50546C6
:102740000C46164600F5FA773846FFF712FE20B120
:10275000A719BC4205D13046F8BD2846FFF7BEFF99
:10276000F2E7284614F8011B00F0C7F9F1E7000072
:1027700030B5044687B001F0B1F994F8BD30CBB163
:1027800094F83533B3B92046FFF7A8FF04F5FA7083
:10279000FFF7EFFD70B90125094B0294CDE9033035
:1027A000084B0195009302AB20460ECB00F02AF9AE
:1027B00084F8355307B0BDE8304001F0A5B900BF3B
:1027C000DD260008FB2200082DE9F04706460F46EB
:1027D0001546002A44D001F07EF9044630B12A465D
:1027E00039463046BDE8F047FFF7A8BF06F5407010
:1027F00001F0E6FD96F8FC327BB9A7EB040AA5428E
:102800000AEB04071CD996F8FC32CBB9394606F519
:10281000FA70FFF7F9FD0134F1E796F83433A3B10C
:1028200006F5407001F0E8FD012001F090FD06F58D
:10283000407001F0C5FD96F8FC32002BF0D1DCE7CA
:102840003046FFF795FFA542D4D806F5407001F059
:10285000D3FD002C14BF20466FF00A00BDE8F087BE
:102860001046FBE7A0F1E400FFF7AEBF70B50446E9
:102870000E4600F5407001F0A3FD3146204600F001
:1028800097F92046FFF774FF04F5407001F0B4FD9E
:10289000002070BDA0F1E400FFF7E8BF83681A686C
:1028A00043681A4214BF01200020704770474268F5
:1028B00010B482B1D0E9033404F0010123B951B15D
:1028C00061105158CB5801E00029F9D1816802EB21
:1028D000640010BC184710BC7047000070B5044677
:1028E000D0F8C4104C3000F055FBD4F8D82092B189
:1028F000D4F8C8301BB9D4F8CC30D8070BD5D4E9FC
:1029000037314E1004EB6100C90744BFA159CB58C1
:1029100094F8D0109847D4F8B81004F14C00FEF7A2
:1029200009FA224604F14C000249BDE87040FDF767
:10293000B3BD00BF092B0008F8B5002517464C228F
:102940001C4B044603601C4B0E4643601B4B294640
:10295000C0E90555C0E907558560C36085844563B6
:102960004564A0F848500061104404F04FFB40F269
:102970000113C4E92D57C4F8A450A4F8BC30B3889F
:102980002046A4F8BE30B389C4E93165A4F8C0304C
:102990004FF6FF73C4E93655C4F8CC5084F8D050D4
:1029A000A4F8D230A4F8D430C4F8E050FFF796FF72
:1029B0002046F8BDBC8F0008DD280008AF280008BD
:1029C00038B5054655F84C3B04461B6898472846E1
:1029D000FEF762F90546236820465B68984728465B
:1029E00038BD38B5054655F84C3B04461B6898473A
:1029F0002846FEF767F90546236820465B68984736
:102A0000284638BD84B02DE9F047064609AD85E873
:102A10000E0003689DF834701B68984796F8BC3028
:102A20003C0103B18FB196F8BD300BB1012F0CD032
:102A300095E80F003444983484E80F00336830463A
:102A4000BDE8F0475B6804B0184701F047F804F1AF
:102A500098080C9AB044D8F80C308AB10BB901F040
:102A6000EDF995E80F003444983484E80F00012212
:102A7000394606F14C00FDF71BFD01F045F8DDE796
:102A80000BB101F0F1F90022C8F80C20F0E70000CA
:102A9000F0B5002504462F46104B87B002AE036008
:102AA000CDE90075204696E80E00FFF7ABFF6B1CE2
:102AB000022B4FF00105F3D194F8BC3013B994F810
:102AC000BD301BB104F14C00FEF75AF8206A08B182
:102AD00000F00EFF204607B0F0BD00BFBC8F00081D
:102AE00010B50446FFF7D4FF2046E42101F02DFC89
:102AF000204610BD4C30FDF73FBD10B50C464C30A4
:102B0000FDF750FD204610BD00EB0110983008B5D0
:102B1000C3680BB1FFF7D0FC08BD70B504460D4685
:102B200003681B68984794F8BC30AB4217D0E5B9EE
:102B300000F0D4FF2A46294604F14C00FDF7B8FC0A
:102B4000D4F8A4308BBB00F0DFFF84F8BC5035B95B
:102B500094F8BD301BB904F14C00FEF711F823685E
:102B60002046BDE870405B68184794F8BD304BB90B
:102B7000D4E90132511004EB6200D20744BF62581D
:102B8000D358984700F0AAFFD4F8A430002BDAD02D
:102B900004F19800FFF790FC01F050F901220021A8
:102BA00004F14C00FDF784FCCDE701F05DF9CAE7C4
:102BB00070B504460D4603681B68984794F8BD300D
:102BC000AB4217D0E5B900F089FF2A46012104F194
:102BD0004C00FDF76DFCD4F8B4308BBB00F094FFD3
:102BE00084F8BD5035B994F8BC301BB904F14C00E1
:102BF000FDF7C6FF23682046BDE870405B681847B4
:102C000094F8BC304BB9D4E90132511004EB6200A6
:102C1000D20744BF6258D358984700F05FFFD4F8FA
:102C2000B430002BDAD004F1A800FFF745FC01F026
:102C300005F9012204F14C001146FDF739FCCDE7FE
:102C400001F012F9CAE70000EFF3108372B6054AEB
:102C5000117831B9DB43044903F001030B70012300
:102C600013707047DC0B0020DD0B002008B5EFF37C
:102C70001083DB4313F0010304D0362205490648D4
:102C800000F06CFE054A1370054B1B7803B162B669
:102C900008BD00BF4F8400086B840008DC0B0020D7
:102CA000DD0B0020014B1878704700BFDC0B0020C3
:102CB000F8B50F46044615461E46FDF731FD0137AF
:102CC0000FD022685EB1A368204601211A60FDF78B
:102CD0004DFD29462046BDE8F840FDF743BDE368B9
:102CE000F2E7F8BD13460022FFF7E2BF0022FFF72C
:102CF000F9BF000007B502468A4208460AD0531CB5
:102D000008D0013005D0002303490448009301F0A6
:102D10007BF8104603B000BD8584000830010180B7
:102D2000B1F900305A1C01D118467047834201D1D5
:102D3000486870470C31F3E7421C13B504460AD0CB
:102D4000FFF7EEFF431C06D1002322460349044847
:102D5000009301F059F802B010BD00BF968400083E
:102D600030010180B1F900305A1C01D1184670477A
:102D7000834201D1886870470C31F3E72DE9F041B7
:102D8000456895F832706FBB03685B6898472C6A9A
:102D9000844227D02B69A968041B95F934201C4074
:102DA000A1FB04412862B2B1686A061941F1000131
:102DB000BA4219DBC2F12000A2F1200326FA02F484
:102DC00001FA00F021FA03F304431C43D14004FA52
:102DD00002F2B21A6A62D5E90A321B1941EB02010A
:102DE000C5E90A31BDE8F081D5F80C803B46424682
:102DF000304604F07FFF044608FB10606862EAE793
:102E0000824206D98A420BD9884294BF0020012011
:102E10007047884206D98A428CBF00200120704743
:102E200001207047002070472DE9F04144680646B4
:102E300094F83230002B61D194F83180B8F1000F52
:102E40005CD1FFF79BFF6368002B59D0D3E90003E7
:102E5000D4E90A1281429A4104D33368BDE8F041B3
:102E60005B6918477568D5E90A12401A63EB020CD2
:102E7000EB69D5E90572824273EB0C031FD3EB6853
:102E8000A3FB000103FB0C1195F93330A3B1AA6831
:102E900002F1FF3C1CEB000041F10001002B1BDBA9
:102EA000C3F1200CA3F12002D84001FA0CFC40EA47
:102EB0000C0021FA02F21043874228BF07462B6A12
:102EC0001F442B691F40236ABB4209D140F2C9123B
:102ED0001049114800F042FD434604F00BFFEBE7B8
:102EE000336838461B69984733685B6898473A46A9
:102EF0000146206AFFF784FF0028AED1BDE8F081CB
:102F00006369206A22691844336810401B69BDE870
:102F1000F0411847E3840008F584000870B50546C1
:102F200000F0DCFDD5E90034DB68984794F83230D6
:102F30001BB1BDE8704000F0E7BD012384F83130DB
:102F40006368A3B12846FFF719FFD4E90A626368F2
:102F5000D3E9000186428A4109D36A68DB68526876
:102F600063602368002BEBD090689847E8E7002364
:102F7000284684F83130FFF757FFDAE77047000042
:102F8000024B1B680BB10248184770473401002000
:102F9000CC8F0008B1F90C20B1F90410FDF7FCBE8C
:102FA00008B5BFF35F8F1C4BD3F8901011F47C4F22
:102FB00004D1412219491A4800F0D0FC00221046E1
:102FC000C1F30721C3F894208A421FD11022C3F80D
:102FD0009C20144AC3F8A0201322C3F89C20124A54
:102FE000C3F8A0201122C3F89C20104AC3F8A020E7
:102FF0000F4AC3F89C200F4AC3F8A0200722C3F849
:103000009420BFF34F8FBFF36F8F08BDC3F8982094
:10301000C3F8A0000132D7E700ED00E04A850008C0
:103020005985000839F00206390702133FF50B13E2
:103030001200008039000213102300F007B820238B
:1030400000F004B8302300F001B840239C46F0B4EF
:1030500004AE7546E80801D3EFF309860E4F0FCE94
:103060000FC70FBC0FC74046494652465B460FC7C5
:103070001DCE3100A60A00D304316E0900D24831BA
:103080001FC7EFF309806946EFF3148663C76046F4
:10309000014900F077F800BF180C0020F0B52B4E66
:1030A0000024354685B0214656F8042B28480134C3
:1030B00000F0F8FC0D2CF6D1AB6C264C02936B6C37
:1030C000254801932B6C0093D5E90E23696B00F022
:1030D000E9FC2168214800F0E5FCE16AA26AA36AE4
:1030E000A06A266BE76B000CCDE901670090C3F383
:1030F00007231B48D2B200F0D5FCA36A1E0603D5F5
:10310000616B184800F0CEFCA36A180403D5A16BCC
:10311000154800F0C7FCEB6C190712D5134800F0F6
:10312000C1FC2B6DDA070FD5114800F0BBFCEB6C2E
:103130005B074CBF0F48104805B0BDE8F04000F0F9
:10314000B1BC0E4800F0AEFC0D48EEE7180C0020B4
:103150006685000800ED00E074850008C38500085E
:10316000D1850008208600082E8600083C860008CD
:103170004B8600087B860008878600086B8600085F
:103180005886000807B504460D461A48012100F08C
:103190000CFC68BB184800F085FC302C19D0402C82
:1031A0001CD0202C1FD1154800F07CFC144C154875
:1031B00000F078FCFFF772FF134800F073FC002268
:1031C0000C4B1A7000232A4620461049009300F049
:1031D0001BFE0F4800F066FC0E4CE8E70E4800F0BE
:1031E00061FC0E4CE3E70E4800F05CFC0D4CDEE7A2
:1031F0000024E7E7E50C002093860008BC86000861
:103200003E01FF80E9860008F48600081387000865
:10321000CB8600083F01FF80D48600084001FF8074
:10322000DF8600083D01FF8070B56FF00046144650
:1032300012680D46B242049906D231B1184603F025
:1032400039FD431C05D1206070BD10B1AA4238BFC2
:103250008354236801332360F6E700002DE9F04F23
:10326000924618228DB09DF868308046DDE91646FA
:1032700089460DEB020000219DF86070029303F077
:10328000C5FE029B002B0CBF20233023012F04938B
:1032900022D1002E50DABB46644266EB460600257A
:1032A00006AB0393BB1EDBB20593059B012B46D8EF
:1032B000022F0CBF364A374A04F00F03D25C2409B0
:1032C00044EA06743609039B013503F8012B039386
:1032D00054EA0603E9D10BE03B1FD3F1000B4BEBA3
:1032E000030B54EA0603DAD1302301258DF8183098
:1032F000BBF1000F48D0029B3BB11B9B5246009391
:1033000049462D234046FFF78FFF199B01359D420B
:1033100005DA199BAB421DDCBBF1000F0AD0029B02
:103320003BB91B9B5246009349462D234046FFF76D
:103330007BFF013D06AC22E04FF0000BD1E72046B9
:1033400031460A22002304F0D5FC303204460E46F2
:10335000D2B2B8E71B9B524600934946049B4046B5
:10336000FFF762FF199B013B1993D2E71B9A013DBE
:103370002B5D4946009240465246FFF755FF002D0F
:10338000F4D10DB0BDE8F08F199B9D42C1DBD1E7B0
:1033900037900008279000082DE9F04F1C460023C5
:1033A00095B007460D4693461393B2B1994214DB8C
:1033B00008BF01234FF0000918BF01F1FF3510933A
:1033C0001BF809306BB947B1109B33B9139BAB4263
:1033D00095BF109A109BFA547B55139815B0BDE811
:1033E000F08F252B40F0648209F101031BF80320C4
:1033F000203AD2B20D2A07D842F6090121FA02F288
:10340000D20748BF09F102031BF803202A2A1BD167
:103410004FF0000A01330434CDF828A01BF8032034
:103420002E2A40F0E5800BEB030251782A2926D0A2
:1034300000260A205378303BD9B2092940F2D480C3
:10344000CBF1010313441DE0302A11D101331BF8E5
:103450000320302AFAD001224FF0000A0A925B447E
:103460001A78303AD1B2092904D9A3EB0B03D5E776
:103470000022F1E70A21013301FB0A2AF0E754F8A0
:10348000046B02331BF80320682A40F0B4800BEB76
:1034900003025278682A00F0BE801C22B2498A5C7E
:1034A00002F00F01CB181BF803800E93B8F1690FDF
:1034B00000F2EE80B8F1570F00F2BE80A8F146038B
:1034C000012B00F2EA80073424F00704F4E8022319
:1034D00019461046CDE9082304F024FC6FF00043A0
:1034E0009E420D9107900B9100F03B81002E00F061
:1034F0006381012200230F920A220C939E4200F363
:10350000378107980B9904F00DF902460B46DDE967
:10351000080103F07DFF804689460F980C9904F05E
:1035200001F902460B464046494604F029F90022BB
:1035300080468946DDE90801002304F093FB1190E1
:10354000002800F01F814B4642460020874903F0C7
:103550005FFF04F0E7FB0F9B894698420C9B804677
:10356000994109DB4FF00008079B013B07930D9B36
:1035700063F100030B93C146731CAAEB030A2AEA0A
:10358000EA7A079B0B9A134340F03181DDE9080189
:103590000022002304F066FB002800F028811E9B17
:1035A000002205930A9BCDE903A304230293002381
:1035B000CDE900232946384613AAFFF74FFE002E17
:1035C00000F043811E9B2946009338462E2313AA00
:1035D000FFF72AFE1E9BCDE9008905930123CDE963
:1035E0000363002302939FE000FB0636013221E7CC
:1035F0006FF0004646E76C2A06D10BEB03025278C7
:103600006C2A0AD0202249E74C3AD2B22E2A7FF601
:1036100045AF002244E7722242E7822240E7082BAE
:103620003BD8DFE813F029013A003A0016013A00CE
:103630006C003A003A006C00A8F15803112B2CD80A
:1036400001A151F823F000BFFF3600089B360008A7
:103650009B3600089B3600089B3600089B36000806
:103660009B3600089B3600089B3600089B360008F6
:103670009B36000839380008B93600089B36000828
:10368000C7340008C73400089B360008B936000864
:10369000A8F17003D9B20829C1D91E9B294600930D
:1036A0003846252313AAFFF7BFFD0E9BB8F1250F5F
:1036B00018BF4B460E93C8E0822A10D1073424F07D
:1036C00007031C465B6854F8082B1E99009205916D
:1036D0000A99CDE903A101210291019324E0112A65
:1036E00054F8043B07D0722A15BF1A465AB2D317B2
:1036F00043F3C013E9E71AB243F3C033E5E7822A84
:1037000018D1073424F007021446526854F8083BD5
:103710001E99B8F1750F05910A99CDE903A119D148
:103720000021CDE9003202912946384613AAFFF75D
:1037300095FD8AE0512A54F8043B09D0722A03D03F
:10374000112A03D00022E3E7DBB2FBE79BB2F9E7E3
:10375000DA17DDE7B8F1580F01D10321E1E70221C3
:10376000DFE70626C5E600BFF88F00080000E03F4F
:103770000F980C99A0FB020C02FB01C10F900C9159
:103780000133BBE64F4B00224046494603F042FE60
:1037900004F0C8FA0F9B894698420C9B80469941D9
:1037A000FFF6EAAE079BDDF84480013307930D9BDB
:1037B00043F100030B93DEE60D9903F0B3FF0246DD
:1037C0000B46DDE9080103F023FE02460B46CDE976
:1037D000082300223B4B04F063FAA0B1079B01339E
:1037E00007930D9B43F100030B93B046B1461E9B1C
:1037F00005930A9BCDE903A301230293079B009342
:103800000B9B0193D6E60022DDE908012E4B04F064
:1038100029FA70B1079B13F1FF380D9B63F1000982
:1038200058EA09033FF4BBAECDF81C80CDF82C90CC
:10383000DBE7B046B146A4E61E9A14F8043B2946DD
:103840000092384613AAFFF7EFFC0E9B03F1010923
:10385000B6E554F8048B464498F80030002BF4D0B9
:10386000B045F2D01E9A29460092384613AAFFF7B7
:10387000DBFC08F10108EFE71E9B54F8046B2946B6
:103880003846009313AA3023FFF7CEFC1E9B29462F
:1038900000933846782313AAFFF7C6FC1E9B0096B8
:1038A00005930023CDE9033303230293F31714E7B1
:1038B0001E9A29460092384613AAFFF7B5FCCDF8A8
:1038C0003890C2E70000E03F0000E0BF13B50024DD
:1038D0000094FFF761FD02B010BD07B513460090DC
:1038E0000A4600206FF00041FFF756FD03B000BD0F
:1038F000024B1B6803B11847704700BF6C0C0020D7
:10390000036870B5012200211B6905469847041E13
:103910000CDB2B68022200211B69284698472B6884
:103920002146002204461B6928469847204670BD60
:10393000034B186818B14FF0FF3101F00BBE704710
:103940003C110020024B186808B101F01BBE704703
:103950003C11002002F0ACBC02F09EBB07B50B4648
:10396000009201460022014800F04EFA4401FF8017
:1039700003464FF00102D3E84F0FC3E8412FC0B216
:103980000029F8D17047D0E85F3F5B18C0E8523F8C
:10399000002AF8D198B27047D0E85F3F5B1AC0E8C0
:1039A000523F002AF8D198B270470346D3E84F0F30
:1039B000C3E8421FC0B2002AF8D1704700B589B0F1
:1039C00000F08CF800211C2201A803F01FFB052148
:1039D00001A8FFF78BF90424039B019A0D481A6094
:1039E00000F0B8FC049B019A0A481A6000F0B2FC8F
:1039F000013CF1D10424039B019A07481A6000F0AE
:103A0000A9FC049B019A04481A6000F0A3FC013C45
:103A1000F1D1E0E7F0490200801A060073B50022F8
:103A200001460446022000F019FB0D2600F056F86E
:103A300000222378254623B902B0BDE8704000F08B
:103A400063B80A2B04F1010409D10D2A07D0012221
:103A500002200DF107018DF8076000F0FFFA012246
:103A60002946022000F0FAFA14F8012CE1E70000E0
:103A700000B5A3B002460B4601A88421FFF726FF3C
:103A8000832806D9064B1A681B79CDF883208DF858
:103A90008730002802DD01A8FFF7C0FF23B000BD7A
:103AA000238700080FB407B504A951F8040B01914E
:103AB000FFF7DEFF03B05DF804EB04B07047EFF3EF
:103AC0001080C04300F001007047EFF3058000381C
:103AD00018BF01207047FFF7E5B8000008B5FFF7F1
:103AE000B3F8064A1368591C04D13F22044905481B
:103AF000FFF734FF0133136008BD00BF700C0020D6
:103B00005A8700086A870008044A136823B1013BFA
:103B100013600BB9FFF7AAB8704700BF700C002004
:103B200008B50B48FFF724FF28B1FFF7D7FFBFF315
:103B30004F8F20BFFDE7FFF7C8FF08B1FFF73EFF3B
:103B4000FFF7BDFF0028F9D0012000F0DBFB00BF2C
:103B5000E40C00202DE9FF41484C0E4621688046C8
:103B600001F0C043B3F1C04F0CBF4D428DB2C1F361
:103B70000743174642482A46FFF794FF6FF49873AD
:103B80001D44132D0FD8DFE805F00A5255585B612C
:103B90005E640E0E0E0E0E0E0E0E0E0E0E67A16859
:103BA0003848FFF77FFF4046FFF738FF6168364827
:103BB000FFF778FF4EB13548FFF730FF3046FFF78B
:103BC0002DFF39463248FFF76DFFA1683148FFF7F6
:103BD00069FF2368304A9A18012A02D92F4A934272
:103BE0003ED1A268002A40D1E368002B44D0596836
:103BF0002B48002908BF0146E0692A4D0390A069BF
:103C0000029060690190206900902748002A0CBF4B
:103C10002A4602462548FFF745FF21682448FFF75A
:103C200041FF244804B0BDE8F041FFF73BBFA16865
:103C30002148B6E7A1682148B3E7A1682048B0E76A
:103C4000A1682048ADE7A1681F48AAE7A1681F48FE
:103C5000A7E7A1681E48A4E71E48FFF723FFA2E7D5
:103C60001D4A9342BDD00022BEE792F84C2082F05C
:103C70000802C2F3C002B7E70949BDE7780C00208B
:103C8000B087000801880008A9880008BA880008E1
:103C9000C2880008C6880008C2FE007F4001FF807D
:103CA0009B87000812870008A5870008DA880008AB
:103CB00033890008828900081788000827880008CF
:103CC00036880008498800085D8800087188000867
:103CD00080880008968800083D01FF80704700003A
:103CE000294B70B510EA200438BF1C460D468EB033
:103CF00016460021302202A803F088F9234B0194D4
:103D0000E318012B039502D9214B9C4232D1EB6B76
:103D100002936B6B08931F4B5B69DA6B04930592FC
:103D20005A6B1B6B06920793FFF7D8FE1A4A13686B
:103D30000133012B136009D1184C01AD0FCD0FC415
:103D40000FCD0FC40FCD0FC42B682360144D01ACF1
:103D50000FCC0FC50FCC0FC50FCC0FC52368A5F135
:103D600030002B600F4B1B6853B19847FFF7CCFE18
:103D70000EB070BD0C4B9C42C9D0029601ABC9E796
:103D8000FFF7ACFFF2E700BF0101FF80C2FE007F3A
:103D90004001FF8040020020E00C0020AC0C00201D
:103DA000780C0020740C00203D01FF800FB407B593
:103DB00001210D487546FFF7F8FD044688B9014614
:103DC0002A460A48FFF78CFF224621460848FFF79B
:103DD000C1FE049805A90191FFF74AFE0548FFF7C7
:103DE0001DFEFFF79DFE00BFE50C00200001FF80D7
:103DF0009C8900081187000800207047014B187843
:103E0000C0B27047E50C002080B506460C460A4853
:103E10000121F04617461D46FFF7C7FD48B9424647
:103E200039463046FFF75CFF29462046029AFFF7E5
:103E300091FEFFF775FE00BFE50C002013B5074C9F
:103E400001212046FFF79FFD034628B900902288F4
:103E500003490448FFF7D8FF02B010BDE60C00206C
:103E6000B18900082301048013B5094C01212046C3
:103E7000FFF792FD4FF6FF73984206D1002300939F
:103E8000228804490448FFF7BFFF02B010BD00BFFD
:103E9000E60C0020D389000824010480034B188815
:103EA00080B2B0FA80F04009704700BFE60C0020F5
:103EB00008B5FFF713FEFFF7F1FF28B1FDF7E2F8B1
:103EC000BDE80840FFF720BEFDF7D0F8F8E7002076
:103ED0007047002070470000074A084913681844DB
:103EE000884283BF0C22064B4FF0FF3010608CBF1E
:103EF0001A601846704700BF38010020003C0120BE
:103F0000E4290020012070470120704708B500F027
:103F1000FFFA08BD08B500F003FB08BD10B5044664
:103F2000037803F00303012B08D0FFF701FD23788A
:103F300003F00302012A03D1FFF704FD002010BDA6
:103F40002AB140F2D36204490448FFF707FD43F069
:103F5000020323700120F2E7238A0008358A000853
:103F600008B5037803F00302022A05D040F2DC62B0
:103F700006490748FFF7F2FC23F0030343F001036F
:103F80000370BDE80840FFF7DDBC00BF238A0008CE
:103F9000538A00083F2870B504462CDC174E56F8AB
:103FA00020305A1C25D1022823DCFFF792FF03465C
:103FB000E8B92046FFF78BFF0346C0B9104D2B68C8
:103FC000BFF35B8FDB0711D42846FFF7A7FF68B16B
:103FD0004FF4E1320B490C48FEF704FB0B4A0C4945
:103FE0000948FFF78FFF2846FFF7BAFF094B46F84D
:103FF0002430184670BD0023FBE700BF3C010020C1
:10400000E80C002048900008EC0C0020280100205B
:10401000A5220008D00D002038B5041E06DA03F0F2
:10402000B3F8092303604FF0FF3038BDFFF7B2FF4C
:104030000025084A42F824500028F0D003685B6944
:104040009847041E04DA03F09FF864420460EAE72C
:104050002846EAE73C010020FFF7DEBF38B50C46F2
:104060001546FFF797FF38B903F08EF80923036070
:104070004FF0FF34204638BD036821462A46DB68EE
:104080009847041EF6DA03F07FF864420460EFE715
:1040900038B50C461546FFF77DFF38B903F074F8C4
:1040A000092303604FF0FF34204638BD03682146E2
:1040B0002A469B689847041EF6DA03F065F86442C6
:1040C0000460EFE710B5FFF765FF30B903F05CF867
:1040D000092303600024204610BD0368DB6998476C
:1040E000041EF8DA03F050F864420460F2E70000BE
:1040F0002DE9F74F06460F469046FFF7E6FC0546CA
:1041000030B1002332462C492C480093FFF77CFE47
:10411000FFF7D5FC0028F4D0A84509DA03F034F8FD
:10412000162303604FF0FF34204603B0BDE8F08F44
:104130003046FFF7C7FF044640B12C464FF00D0B49
:10414000DFF87CA01AF80690A84512DCA045EBDD4C
:104150003046A8EB04023919FFF780FF431CE1D079
:104160000444002CC1BF3F1917F8012C144B9A5579
:10417000DAE77B5D0A2B1BD1B9F10D0F18D0AC42E9
:104180000BDA391930462A1BFFF768FF411CC9D0EA
:104190000444A542C8DC0AF80690012230460949C9
:1041A000FFF75CFF421CBDD00028BDD00AF806B066
:1041B00017F805900135C7E78A8A00082F010180AA
:1041C00028100020C48A0008FFF77CBF7FB5044692
:1041D0000E461546FFF779FC30B1002322462049F0
:1041E00020480093FFF710FEFFF769FC0028F4D089
:1041F000002D07DA02F0C8FF162303604FF0FF30EE
:1042000004B070BD2046FFF75DFF00B3164D0122DC
:1042100020460DF10F01FFF73BFF431CF0D00028B3
:10422000EED09DF80F300D2B08D12A5D0A2A0AD056
:104230001A460A2301202A553370E1E70A2B04D1DC
:104240002A5D0D2AF3E72B55E1E71A46F2E72A46E5
:104250003146204604B0BDE87040FFF719BF00BFEB
:10426000C68A00082F0101806810002038B50C466E
:104270001546FFF78FFE38B902F086FF0923036069
:104280004FF0FF34204638BD036821462A461B699B
:104290009847041EF6DA02F077FF64420460EFE705
:1042A000FFF7E4BF10B5FFF775FE30B902F06CFF01
:1042B000092303604FF0FF3010BD03689B699847E6
:1042C000041E04DA02F060FF64420460F2E700209A
:1042D000F2E7000005460A4C08B52368986802F02A
:1042E000D3FB2368D86802F0CFFB0120FFF7DAFF89
:1042F0000220FFF7D7FF0DB1FFF760FBFEE700BF1D
:104300000C07002008B5FFF7E5FF38B50D46FFF7AD
:1043100041FE044630B902F037FF092303604FF035
:10432000FF3038BD0368DB69984700280CBF4FF4A5
:1043300000434FF400536B60236820469B6A984704
:1043400028610020EDE7FFF7E0BF01F0A9BF00F012
:1043500075B80000034A516A536A5B1A8342FBD363
:10436000704700BF000C00401FB5002303620D4BD7
:104370000446002918BF0B460093031D02931C231B
:1043800003930B236846019301F0CCF8206038B901
:10439000FFF734FD20B93E2203490448FFF7DEFA57
:1043A00004B010BD028B00084A8B0008548B000833
:1043B00010B504460021FFF7D7FF204610BD0000CE
:1043C00037B504464FF0FF31006801F0C3F80546E9
:1043D00048B1FFF713FD034640B900902A4604494F
:1043E0000448FFF711FD236A0133236203B030BD97
:1043F000788B000815010280036A13B5013B036244
:10440000006801F0BFF8044648B1FFF7F7FC034627
:1044100028B90090224603490348FFF7F5FC02B093
:1044200010BD00BF8A8B00081701028010B504463A
:10443000006801F0BFF8204610BD000008B538B193
:1044400000F026FA20B1E32202490348FFF786FA7A
:1044500008BD00BFCC8B0008608C000808B50A4A74
:104460000A4B1A600A4B9B1A0A4A13600A4A0B4B02
:104470001A600B4B9B1A0B4A13600B4A136000F037
:1044800055F800F013F900BF003C0120181100207E
:104490000040012014110020F0290020B01000205D
:1044A000003C0120AC100020A810002038B50B25DE
:1044B0001C240E4A0E4B104613600E4B5560D46000
:1044C000936001F02FF80C4B0C4A18600C4B10460F
:1044D000C2E900350B4BD460936001F023F80A4B1E
:1044E0001860BDE8384002F055BE00BFE41000205F
:1044F0006F8C0008F410002010110020B410002070
:104500007C8C0008C4100020E010002001F042BDA7
:10451000024B4FF0FF31186801F01CB81011002059
:10452000014B186801F02EB81011002010B50F4C87
:10453000636A43F4E0236362FEF732FD4FF00053F9
:10454000A0680B491A1802F16042126843F8042B64
:104550008B42F7D14FF00052044B9A60FCF7EEF912
:10456000FCF734FEBDE8104000F09EB800ED00E01E
:10457000240100207047704708B500F0C9F8FFF724
:10458000F9FFFFF793FFFFF7F6FFFFF735FCBDE8F4
:104590000840FFF7BBBF0000A8B10C4B1B68B3FB82
:1045A000F0F00138B0F1807F0DD2FF22084B83F884
:1045B00023204FF0E02306221A6158610020986101
:1045C000044B187070474FF0FF30704730010020E7
:1045D00000ED00E01C110020074B1A782AB10022E0
:1045E0001A704FF08062054B5A604FF0E022136959
:1045F00043F00103136170471C11002000ED00E03F
:104600004FF0E0231B6970474FF0FF307047000008
:104610001EF0040F0CBFEFF30880EFF309808169EF
:1046200011F8021C00291CD101B590E80F10E047D9
:10463000BDE80050CCF80000194B93E80600914209
:1046400008BF70471A6019B12CE9F00FC1F838C0E3
:104650001400A06B6FF0020EB0E8F00F80F3098831
:104660007047104A13689942FAD801B552F821C030
:104670000FC8E047BDE80050CCF80000704701B516
:1046800000F0FAFFBDE80140EFF3098CD4E701B573
:1046900000F0B6FFBDE80140EFF3098CCCE7000065
:1046A000540200203091000800F006BA07B5104B04
:1046B000104A002113614FF4805353615023D3609B
:1046C0000D4B0E489360182393610D4B136001F05E
:1046D00051FB034628B9074A0A4900900A48FFF7E8
:1046E00093FB00F001FA002308491A460093F5E70E
:1046F00090110020902100204011002079450008F1
:10470000868C00088B8C00081D010180A78C000896
:104710001FB5054B0FCB8DE80F00684600F002FF78
:10472000024B186005B000BD609000083C110020ED
:1047300073B506460C461546FFF760FB70B9E31DDE
:1047400082BF074B063453F824104FF00003324663
:10475000284698BF03490093FFF756FB02B070BD8F
:1047600070900008D48D000808B500F071F80000C2
:10477000002307B5411E009302460023042919D8DF
:10478000DFE801F003080C10140001220B490C486B
:10479000FFF73AFB02220B490B48F9E703220B49CA
:1047A0000B48F5E704220B490B48F1E705220B49BA
:1047B0000B48EDE70B490C48EAE700BFCC8C00083A
:1047C00025010280ED8C000826010280128D000870
:1047D00027010280478D000828010280828D000891
:1047E0002A010280C28D0008000102800146014AB0
:1047F000FFF79EBF31010180014AFFF799BF00BF5B
:1048000032010180014AFFF793BF00BF33010180ED
:10481000014AFFF78DBF00BF3801018010B501F0DC
:10482000C1FA034B1B6813B1BDE81040184710BD17
:10483000B421002008B5FFF751F9FFF7FFFAFFF7A1
:1048400037FBFFF711FBBDE80840FFF75DB900003B
:1048500008B5024C23689847FCE700BF3C020020E3
:10486000014608B530B96FF0030000F02AF86FF088
:10487000030008BD132001F0A9F930B94FF0FF3053
:1048800000F01FF84FF0FF30F3E70020F1E70000E1
:1048900008B5EFF305834BB9EFF3108333B9EFF3AA
:1048A00011831BB9DFF814C000DF08BD6FF00500ED
:1048B00000F007F86FF00500F7E700BF6148000857
:1048C00070477047EFF310832BB9EFF31180C01AD4
:1048D00018BF0120704701207047000070B5484C98
:1048E000217A012900F08A8031B14FF0FF30FFF7C3
:1048F0007DFF4FF0FF3070BD424D9C2204F1080057
:1049000002F084FBD5E90B61EB683046E3652B8A46
:10491000A4F85430AB68236400F0FCF808B1C4F884
:104920008060D5E90561304600F0F4F808B9D4F8A4
:1049300080606667D5E90761304600F0EBF808B99A
:10494000D4F88060A667D5E90961304600F0E2F846
:1049500008B9D4F88060E6676E6B3EB1D6E90223F1
:104960003046316800F03FF9C4F88460AE6B3EB168
:10497000D6E902233046316800F035F9C4F8886082
:10498000EE6B3EB1D6E902233046316800F02BF9D8
:10499000C4F88C602E6C3EB1D6E9022330463168F3
:1049A00000F021F9C4F890606E6C3EB1D6E90223A4
:1049B0003046316800F017F9C4F89460AE6C3EB12F
:1049C000D6E902233046316800F00DF9C4F898604A
:1049D000EE6C3EB1D6E902233046316800F003F9AF
:1049E000C4F89C602D6D3DB1D5E9022328462968A5
:1049F00000F0F9F8C4F8A0500123237200207AE7F0
:104A000040020020C090000838B5204D2B7A012BC1
:104A100007D06FF00700FFF7E9FE4FF0FF342046A4
:104A200038BD01F085F910B94FF0FF30F3E7FF23EF
:104A3000174A184982F8223092F82230D26893F04F
:104A4000FF0314BFB3FA83F32023C2F30222C3F19E
:104A50002003934298BF531CFE2202FA03F30C4A30
:104A6000D3770D4B5868FFF797FD04460028DBD13C
:104A7000FFF7CAFD2861FFF7AFFD084800F0E6FE2A
:104A800000F058FF02232B72C9E700BF400200204C
:104A900000ED00E08F460008C09000085C02002096
:104AA000704738B504460D46FFF70AFF29462046F1
:104AB000BDE83840FFF75CBE08B5FFF7F1FFEFF344
:104AC000058333B16FF00500FFF790FE6FF005002E
:104AD00008BDFFF7F7FE0028F4D1DFF808C000DFBB
:104AE000F6E700BFDD48000808B5EFF3058333B1F2
:104AF0006FF00500FFF77AFE6FF0050008BDFFF7C5
:104B0000E1FE0028F4D1DFF808C000DFF6E700BFBF
:104B1000094A0008034610B588B1084310F00700A1
:104B20000DD117290AD91022196008395C189C6028
:104B30005A60585099684A60D860012010BD002022
:104B4000FCE770B578B391B1032A2CD80F3121F06E
:104B5000070600F10804234624685D68E11A25F081
:104B60000305491B8E4204D921680029F3D1084668
:104B700070BD4168056831444160284450F8045CC8
:104B80003243A94288BF40F8041C586818B95A60DB
:104B900003F10801EBE720F0030019181C504A60EC
:104BA00019600831E3E70021E1E710B580B1C1B138
:104BB0000022A1F1080400F10803A34209D15968B9
:104BC00021F003044168091B41603AB95A60012091
:104BD00010BD19681A4621B10B46EEE71B68136039
:104BE000F5E70846F4E730B5C0B189B1C2B1CBB141
:104BF0000024C0E9014202FB01F41D190160C360F9
:104C0000436105611846013904D1A41A19510121E3
:104C1000084630BD851805602846F4E70146F7E7E9
:104C20001146F5E71946F3E710B570B100F114032A
:104C300053E8002F12B9BFF32F8F04E0116843E847
:104C4000001404B1F4E70AB9104610BD043050E86E
:104C5000003F591C40E8001404B1F8E7F4E730B510
:104C6000F0B1C3688B421BD803698B4218D900F19D
:104C700014031A680A60BFF35F8F53E8002F0C68B3
:104C80009442F6D143E8001505B1F2E7043050E84C
:104C9000003F5A1E40E8002101B1F8E7002030BD76
:104CA0006FF00300FBE7EFF310832BB9EFF31180F4
:104CB000C01A18BF0120704701207047D1E90132A6
:104CC00023B19A608A681AB153607047C262F9E7EB
:104CD000036370472DE9F84F0746884638B131B174
:104CE000B0FA80F1B8FA88F30B441F2B08DC6FF0A0
:104CF00003010020FFF78CFD00242046BDE8F88F5B
:104D000008F1030626F003060C3606FB00F90AB389
:104D10005368DB0202D56FF00601EAE7D2E90243ED
:104D200024B1342B04D06FF00901E2E7002BFAD153
:104D3000D2F800A0D2E904523DB115F0030301D12D
:104D4000914554D96FF00A01D3E7002AFAD11CB17A
:104D500093460DE092461546264BD3F8A000E0B1ED
:104D6000FFF762FF0446A8B1002D3ED14FF0010BC2
:104D7000204B0022D86F4946FFF7E3FE1D4B054646
:104D8000B8B9BBF1000F05D0D3F8A000214658B147
:104D9000FFF765FF6FF00401ABE701223421D3F880
:104DA0008000FFF7CEFEDDE7D3F88000FFF7FDFEC1
:104DB000F0E74A46002102F029F94BF00203FA22FB
:104DC000A37000232270C4E901A33246C4E9098319
:104DD000C4E90B33E37039462B4604F10C00FFF7AE
:104DE00002FF044B044A1A6787E70123E7E7002C18
:104DF000E5D1B1E7400200208B4E000810B500F16C
:104E0000280353E8002F12B9BFF32F8F04E0511E7F
:104E100043E8001404B1F4E70AB9002010BD4FF0D4
:104E20000102C06A0028F8D0811CD1E84F3FC1E8D8
:104E3000442F04B1F9E7DBB2002BEFD08068F1E733
:104E4000036B30B5E3B10024CD78DA78AA420FD3F2
:104E50001A46C1E901248AB19160A4B16160283089
:104E600050E8003F5A1C40E8002101B1F8E730BD8E
:104E70005A681C46002AECD01346E6E7C162ECE70C
:104E8000C1E90133C1620163E9E7F8B586780446F8
:104E90008EB30026C56801462846FFF70FFF26702F
:104EA00005F10C00FFF7DBFEAB68002B49D005F1E4
:104EB0000C00FFF7B9FE0446002842D0284600F057
:104EC000C5FC07463246314600F05EFE384600F02B
:104ED0002DFD6A6A0746416804F10C0002F098F95A
:104EE000F923A6702370BB68E37021462846BDE80D
:104EF000F840FFF7A5BF8568AB68002BF5D05B785D
:104F0000832BF2D1284600F0A1FC074632463146F9
:104F100000F03AFE384600F009FD06466A6A40682D
:104F200004F10C0102F074F9B3680BB1E2781A7065
:104F300000232370214605F10C00BDE8F840FFF77F
:104F40008EBEF8BD2DE9F04104460E4690461F4640
:104F500018B10378FA2B00D141B920466FF0030154
:104F6000FFF756FC6FF00300BDE8F0818368C3B122
:104F70005B78832B15D100F069FC054601220021E6
:104F800000F002FE284600F0D1FC05463146626A78
:104F9000406802F03DF9AB680BB183F80080002057
:104FA000E2E704F10C00FFF73FFE054678B1314619
:104FB000626A0C3002F02CF9F9232B700023294689
:104FC0002046AB7085F80380FFF73AFFE7E76FB143
:104FD0003946932000F0FAFD10B96FF00100C3E7E5
:104FE000044B2046596900F01FFCF6E76FF0020001
:104FF000BAE700BF400200202DE9F0410446884690
:1050000017461E4618B10378FA2B00D141B9204645
:105010006FF00301FFF7FCFB6FF00300BDE8F081C8
:10502000FFF7ECFE054600283AD001462046FFF780
:1050300045FE4046626A05F10C0102F0E9F80FB145
:10504000EB783B70002604F10C07294638462E7099
:10505000FFF705FEA3680BB90020DFE73846FFF72E
:10506000E3FD05460028F7D0204600F0EFFB074699
:105070003146012200F088FD384600F057FC626A94
:105080000746416805F10C0002F0C2F8F923AE7042
:105090002B70BB6829462046EB70FFF7D1FEDBE79B
:1050A0006EB13146832000F091FD10B96FF0010020
:1050B000B4E7044B2046596900F0B6FBF6E76FF001
:1050C0000200ABE74002002008B5064B08219A6EAB
:1050D000D86EFFF7FFFD044BD864B0FA80F04009AA
:1050E000404208BDC0900008400200202DE9F04178
:1050F00006460F4690461C46EFF305834BB196B922
:1051000030466FF00301FFF783FB6FF00300BDE84B
:10511000F081FFF7C8FD0028F1D130462346DFF8C3
:1051200048C000DFF3E73378FA2BE9D1002FE7D04E
:10513000002CE5D106F10C00FFF776FD054680B1A5
:105140003946726A0C3002F063F8F9232846C5E943
:1051500001762B70AC7085F8038000F0D5FA2046FC
:10516000D5E76FF00200D2E7454F0008F8B50446D6
:105170000F4616461D46EFF3058343B18CB9204612
:105180006FF00301FFF744FB6FF00300F8BDFFF77A
:105190008AFD0028F2D120462B46DFF844C000DF0C
:1051A000F4E72378FA2BEAD1002FE8D0002DE6D1DE
:1051B0002046FFF723FE054670B100F10C01626A3C
:1051C000384602F025F80EB1EB7833702846EC60D3
:1051D00000F09AFA0020D9E76FF00200D6E700BF8E
:1051E000F94F0008EFF310832BB9EFF31180C01AC9
:1051F00018BF0120704701207047000038B50346F2
:1052000058B3446814F4801206D06FF006010020F1
:10521000FFF7F8FA002038BD0568D3E9020320B192
:105220001C2B24D06FF00901F1E7002BFAD1124BAF
:10523000D3F89400A0B1FFF7F7FCD0B10123F52219
:105240008370002304F00F04C0E90233C0E9043383
:105250000270C47045600376DDE705460446E6E764
:1052600001221C21D3F88000FFF76BFCE5E7134611
:10527000E5E76FF00401CBE740020020294B70B551
:105280005D6904460E4635B96FF00801FFF7BAFABA
:105290004FF0FF3070BD10B10378F52B07D02046DA
:1052A0006FF00301FFF7AEFA6FF00300F2E7037E41
:1052B00053B9C0E90353EB6A436103B11861012399
:1052C000EC6200202376E5E7C278D1070DD5C168EE
:1052D000A9420AD1FF2B06D16FF01101FFF792FA14
:1052E0006FF00200D6E70133EBE7002EF8D093070A
:1052F0000AD5E06895F9203090F920209A4203DA27
:1053000080F8203000F0B4FA3146532000F05EFC03
:1053100010B96FF00100BDE72946204600F084FA7D
:10532000F7E700BF400200202F4B70B55A690446D2
:1053300032B96FF00801FFF765FA4FF0FF3070BD2A
:1053400010B10378F52B07D020466FF00301FFF76B
:1053500059FA6FF00300F2E7037E33B96FF01001E2
:10536000FFF750FA6FF00200E9E7C168914202D0FE
:105370006FF00F01F4E7013BDBB203760BB10020C5
:10538000DDE743690BB1016919612169E9B14B613D
:1053900092F92130D56AD5B982F82030A36883B15B
:1053A000204600F053FA06462A46294600F0ECFB58
:1053B000F36AC4E90365636103B11C610123F4620C
:1053C0002376002000F0C6FAD9E7D362E0E7E97857
:1053D000890706D5A96821B191F920108B42B8BF81
:1053E0000B466D69D7E700BF4002002010B50446A8
:1053F00010B10378F52B07D020466FF00301FFF7BB
:1054000001FA6FF0030010BD037EC3B16369C06889
:105410000BB122691A612269FAB1536190F9212016
:10542000C36AE3B990F92030934203D080F820207A
:1054300000F01EFAA068F0B9207600F08BFA002385
:105440002370A378DB0706D5124B2146D3F89400CE
:10545000D0B1FFF704FC0020D5E7C362DEE7D978BE
:10546000890706D5996821B191F920108A42B8BF01
:105470000A465B69D5E7204600F0E8F900226FF0A4
:10548000020100F081FBD5E7D3F88000FFF78DFB28
:10549000E1E700BF400200202DE9F041044600266C
:1054A00001270CB9BDE8F081E378D4F814801B071C
:1054B00012D5A36826767BB1204600F0C7F90022FA
:1054C0000546114600F060FBEB6AC4E903566361D0
:1054D00003B11C61EC6227764446E2E710B4C3785E
:1054E0009B071CD5C06890F92120C36ADC78A4070B
:1054F00009D59C688C4208BF8C6824B194F920407F
:10550000A242B8BF22465B69002BEFD190F9203050
:10551000934204D080F8202010BC00F0A9B910BC40
:1055200070470000024608B5EFF3058333B1002051
:105530006FF00501FFF766F9002008BDFFF752FE86
:105540000028F4D11046DFF808C000DFF5E700BFFF
:10555000FD510008024608B5EFF305833BB1104644
:105560006FF00501FFF74EF96FF0050008BDFFF77A
:1055700039FE0028F3D11046DFF804C000DFF5E75C
:105580007D520008024608B5EFF305833BB1104693
:105590006FF00501FFF736F96FF0050008BDFFF762
:1055A00021FE0028F3D11046DFF804C000DFF5E744
:1055B00029530008024608B5EFF305833BB11046B6
:1055C0006FF00501FFF71EF96FF0050008BDFFF74A
:1055D00009FE0028F3D11046DFF804C000DFF5E72C
:1055E000ED53000810B5D0E85F3F5A1C914200D837
:1055F0000022C0E8542F04B1F5E798B210BD0000B6
:1056000038B51C4CFEF7FCFFE3680133E36000F0A3
:1056100069F9002000F09EF9236D03B19847226CD0
:1056200032B3A369E16B994203D0D969E36301B94D
:10563000DA61DA69C2B9237A022B19D1656ABDB180
:10564000E36B95F9202093F920309A4210D1284637
:1056500000F005F9E06B00F01DF9284600F06AF94A
:10566000236CE563EB6103E0013ADA61002AE2D0E2
:1056700038BD00BF4002002038B5214C04F156056A
:10568000B4F85410D5E85F3F13B9BFF32F8F04E08F
:105690005A1EC5E8502F00B1F4E79BB25BB319481E
:1056A000FFF7A0FFE36D53F8200020B30378F13B30
:1056B000082BE5D801A252F823F000BFE1560008FC
:1056C00081560008E75600088156000881560008F8
:1056D000EB560008EF56000881560008F356000804
:1056E000236E9847CCE7636EFBE7A36EF9E7E36EA2
:1056F000F7E7236FF5E70020BDE8384000F02AB94E
:10570000400200209A02002070B5164C0546B4F8FD
:10571000541004F15602D2E85F3F994202D8BFF319
:105720002F8F04E0581CC2E8560F06B1F3E79BB276
:10573000994205D82946BDE870400220FFF7B1B96B
:1057400004F15800FFF74EFFE36D43F82050637AF1
:1057500023B94FF08052044B5A6070BD0123A372ED
:10576000FBE700BF4002002000ED00E0EFF31083F4
:105770002BB9EFF31180C01A18BF01207047012028
:105780007047000001230A4A10B590F920104370B9
:10579000536A1C321BB193F920408C4205DCC0E9EE
:1057A0000232906003B1D86010BD1A469B68F1E7E1
:1057B00040020020014B5869704700BF40020020A2
:1057C000930710B502F0010422D400F1280384B13C
:1057D00053E8000F00EA01028A4203D0BFF32F8F83
:1057E000002005E020EA010243E8002404B1EFE7CD
:1057F00010BD53E8000F084203D1BFF32F8F0020E4
:1058000005E020EA010243E8002404B1F1E7EFE7F4
:10581000806A00EA01031CB1994218BF0020E7E743
:10582000A34208BF2046E3E710B591F92020836822
:105830001BB193F92040944205DAC1E9023081603E
:1058400003B1D96010BD18469B68F1E783689A6878
:10585000826002B1D06000221846DA607047C268E8
:105860002AB18368936003B1DA600023C360704794
:1058700010B5044664B12378F12B07D0FFF7EFFF92
:1058800001462046BDE81040FFF7CEBFE468F1E7CF
:1058900010BD00000123014643700148FFF7C4BF5B
:1058A0005C02002010B5D0E90431C469621C0CD13F
:1058B00003B1596142691AB113610023436101E0E8
:1058C000074A13630023C36110BD1BB1DA69596134
:1058D0002244DA614269002AEED1014AD362F1E73B
:1058E0004002002038B5104DEC6AE4B1E369013B99
:1058F000E361C3B96378532B08D1204600E0C06848
:105900000378F12BFBD02146FFF7E8FD2046FFF797
:10591000A6FFFFF7BFFF246924B1E369002BE9D09C
:1059200000236361EC6238BD40020020806B2030B0
:10593000704700000223C2784370520758BF032308
:1059400083F31488BFF36F8F014B9861704700BFDA
:105950004002002010B5144B04461A7A5969A0B9C8
:10596000022A1FD15C6AECB194F9202091F9203011
:105970009A4217DD2046FFF772FF0846FFF702FF45
:105980002046BDE81040FFF7D5BF022A05D190F9A7
:10599000202091F920309A42EFDC2046BDE81040EB
:1059A000FFF778BF10BD00BF400200202DE9F74F80
:1059B0001746CDE9000148B96FF003010020FEF75A
:1059C0001BFF0024204603B0BDE8F08F002A5CD006
:1059D000D2F8048008F00603062BEDD018F4801FDF
:1059E00002D06FF00601E9E7D2E9024224B1502A61
:1059F00004D06FF00901E1E7002AFAD1D7E9045693
:105A00002DB1690700D116B96FF00B01D6E7D7F8B1
:105A100018A0BAF1000F06D00AF1FF32372A04D9D4
:105A20006FF00C01CAE74FF0180A3F683BB9504BC2
:105A30001B68DA074CBF48F0040848F0020826B19A
:105A40004C4B1E42E0D1472EDED964BB4A4BD3F803
:105A5000880008B3FFF7E8F8044698B14FF0010951
:105A600045BBDFF814B1002E62D1414ADBF8840057
:105A7000566D00285CD0FFF7D7F80546B0B9B9F1EC
:105A8000000F5FD16FF0040198E7154614464FF000
:105A9000180A16469046CAE701225021D3F8800022
:105AA000FFF74FF8D8E74FF00009D9E749F01009A0
:105AB00049F0020940F2F11323800023FD22C4E9DA
:105AC0000233C4E90433C4E90633C4E90933C4E941
:105AD0000B35A6F140032B44A363009B08F00F088D
