:020000040800F2
:1000000000400120450200088D0200083130000840
:10001000373000083D300008433000080000000081
:10002000000000000000000000000000154600086D
:100030008D02000800000000834600089346000877
:100040008D0200088D0200088D0200088D02000854
:100050008D0200088D0200088D0200088D02000844
:100060008D0200088D0200088D020008D1120008E0
:10007000DD120008E9120008F5120008011300085B
:100080000D130008191300088D0200088D020008E6
:100090008D0200088D0200088D0200088D02000804
:1000A0008D0200088D0200088D0200088D020008F4
:1000B0008D0200088D0200088D0200088D020008E4
:1000C0008D0200088D0200088D020008CD10000886
:1000D000D91000088D0200088D0200088D0200086A
:1000E0008D0200088D0200088D0200088D020008B4
:1000F0008D020008000000008D020008E5100008D5
:100100008D0200088D020008251300083113000835
:100110003D130008491300085513000800000000B3
:100120008D02000800000000000000000000000038
:1001300000000000000000005FF808F10348044BD5
:10014000834202D0034B03B11847704718090020BF
:1001500018090020000000000548064B1B1AD90FA3
:1001600001EBA301491002D0034B03B118477047BC
:1001700018090020180900200000000010B5064CE6
:10018000237843B9FFF7DAFF044B13B10448AFF308
:1001900000800123237010BD200900200000000012
:1001A0004490000808B5054B1BB105490548AFF35D
:1001B0000080BDE80840FFF7CFBF00BF000000008F
:1001C0002409002044900008A3F5803A704700BF3E
:1001D000174B002B08BF134B9D46FFF7F5FF00217F
:1001E0008B460F461348144A121A06F07BFE0E4B3C
:1001F000002B00D098470D4B002B00D098470020D3
:10020000002104000D000D48002802D00C4803F026
:100210007BFE06F035FF2000290004F079F904F098
:1002200073F800BF000008000000000061440008EF
:100230000040012020090020B8290020093F0008C3
:1002400000000000002103E00B4B5B5843500431D9
:100250000A480B4B42189A42F6D30A4A02E000239E
:1002600042F8043B084B9A42F9D301F0ABFFFFF789
:10027000AFFF704770470000509000082801002031
:100280001809002020090020B8290020FEE70000FE
:1002900010B5204994B00A6812F0020202D0002082
:1002A00014B010BD01244B6A002843F080534B6208
:1002B0004B6A194903F080530193019B0B684FF47B
:1002C000801023F4C05343F400630B6014BF052374
:1002D0002346022108934FF48033CDE910134FF4E5
:1002E0000003CDE9120307A807940A9201F016FA59
:1002F0000028D4D10F220323CDE904000690214623
:1003000002A8CDE9022301F059FCB0FA80F04009BF
:10031000C6E700BF003802400070004030B51E4BF9
:1003200095B05A6A1D4D42F080525A625B6A0024B1
:1003300003F080530193019B2B68012023F4C053E9
:1003400043F400632B60022310224FF4002CCDE90C
:100350000734CDE910344FF40003CDE90A0207A8B1
:10036000CDE912C301F0DAF998B96B6813F0100304
:10037000FBD10F21032202A8CDE902120121CDE910
:100380000433069301F01AFCB0FA80F0400915B06E
:1003900030BD2046FBE700BF00380240007000403F
:1003A00008B50120FFF774FF28B9FFF7B7FF10B9B0
:1003B000014803F0FBFC08BD34800008F7B500F0ED
:1003C000C9FC041E26DB144F57F8240010B3134E4B
:1003D000A50173591A68120606D5DB68190603D5FC
:1003E0000F4B01211B68984773591A68920608D56C
:1003F000DB68980605D50A4B00211B6857F82400D6
:10040000984773591A68110704D55A69D20744BF2F
:100410005B68019303B0F0BD800A00204009002012
:100420003C0900200148FFF7C9BF00BF0050004051
:100430000148FFF7C3BF00BF004C00400148FFF771
:10044000BDBF00BF004800400148FFF7B7BF00BF75
:10045000004400400148FFF7B1BF00BF0038014031
:1004600001234109034A00F01F00834042F8213074
:10047000704700BF00E100E001220649430900F097
:100480001F008240203341F82320BFF34F8FBFF37A
:100490006F8F704700E100E0034B19604168034B28
:1004A00043F82120704700BF3C090020800A00204B
:1004B00030B4D0E90035274883422CD00AD8A0F5C3
:1004C0000060834221D000F58060834220D0002468
:1004D000204608E02048834220D000F5684083424F
:1004E000F5D125201D4CAB011D4DEB58E2B1DA686A
:1004F000B9B942F02002DA601A4B00F110029B6891
:1005000043F8224030BCFFF7ABBF2620164CEAE789
:100510002720164CE7E73020154CE4E73120154C36
:10052000E1E742F08002E6E7DA6849B922F020020A
:10053000DA60DB6813F0800F09D130BCFFF79CBF95
:1005400022F08002DA60DB6813F0200FF4E730BCA1
:10055000704700BF004C00400050004055040008A8
:100560004009002000ED00E0490400083D040008B7
:10057000310400082504000838B5044645682046C3
:1005800000F08AFB0028FAD0054BAD015B59E26808
:1005900058680AB9C0B238BDC0F30800FBE700BF15
:1005A0004009002070B505460C464668284600F014
:1005B00089FB0028FAD0054BEA68B6019B5912B9AD
:1005C000E4B25C6070BDC4F30804FAE7400900209F
:1005D00091FAA1F3B3FA83F391FAA1F130B5B1FA2C
:1005E00081F1032504685B0005FA03F3490024EA5E
:1005F00003038A401A43026030BD000000B5334B4C
:1006000089B007285FD8DFE800F004111C27323DCD
:100610004853DA692E4842F00102DA61DB6903F0DF
:1006200001030093009B09B05DF804FBDA692948D7
:1006300042F00202DA61DB6903F002030193019BDD
:10064000F1E7DA69244842F00402DA61DB6903F079
:1006500004030293029BE6E7DA69204842F00802AD
:10066000DA61DB6903F008030393039BDBE7DA69D4
:100670001B4842F01002DA61DB6903F010030493B7
:10068000049BD0E7DA69174842F04002DA61DB697F
:1006900003F040030593059BC5E7DA69124842F071
:1006A0008002DA61DB6903F080030693069BBAE7F8
:1006B000DA690E4842F02002DA61DB6903F02003B8
:1006C0000793079BAFE70A4803F070FB003802402E
:1006D000000002400004024000080240000C0240FA
:1006E0000010024000180240001C024000140240AA
:1006F00048800008431C10B5044604D177220649FF
:10070000064803F029F94FF4707100F059F90120FF
:1007100004F00F04A04010BD9E800008A9800008CE
:100720004B1C70B504460E46018218D0C1F303106D
:10073000FFF764FF05463046FFF7DCFF238A084ACF
:1007400003F00F0352F823306561A36105F1100334
:10075000636005F1180328352060A360E56070BD73
:10076000508D0008B0F9100000F0BAB903460A46EF
:10077000D3E905010AB9FFF72BBF0122FBE708B552
:1007800000F0CEFC002008BD38B503F0A5F9124BEF
:10079000124913485C6A02680B889B1A2344B3F51C
:1007A000803F17D34FF47A75B3FBF5F205FB123394
:1007B00005E00132A3F57A73B3F57A7FF9D20460CC
:1007C000084C9BB20B8023681344236003F09AF912
:1007D000206838BD0022EFE7000C0040940A00209A
:1007E0009C0A0020980A0020704770474FF6FF725D
:1007F000032310B58EB0CDE909230023CDE90B33D7
:10080000454C0D93E36909A943F00103E361E369F2
:10081000424803F001030193019B00F03DFEE369B0
:1008200009A923F00103E361E3693D4843F00203B2
:10083000E361E36903F002030293029B00F02CFEE4
:10084000E36909A923F00203E361E369354843F052
:100850000403E361E36903F004030393039B00F0E3
:100860001BFEE36909A923F00403E361E3692E4851
:1008700043F00803E361E36903F008030493049B76
:1008800000F00AFEE36909A923F00803E361E369C4
:10089000264843F01003E361E36903F01003059376
:1008A000059B00F0F9FDE36909A923F01003E3615A
:1008B000E3691F4843F04003E361E36903F0400349
:1008C0000693069B00F0E8FDE36909A923F04003C5
:1008D000E361E369174843F08003E361E36903F0F0
:1008E00080030793079B00F0D7FDE369124823F0CC
:1008F0008003E361E36909A943F02003E361E3694D
:1009000003F020030893089B00F0C6FDE36923F081
:100910002003E3610EB010BD003802400000024029
:100920000004024000080240000C02400010024097
:1009300000180240001C02400014024008B5FFF7F6
:1009400054FF01F047FC00F00DFDFFF729FD01F019
:1009500041FCFFF74BFF00F0ABFCFFF745FF012226
:10096000014B1A6008BD00BFA00A002091FAA1F354
:10097000B3FA83F391FAA1F130B5B1FA81F103250D
:1009800084685B0005FA03F3490024EA03038A4004
:100990001A43826030BD91FAA1F3B3FA83F391FA5E
:1009A000A1F130B5B1FA81F10325C4685B0005FA05
:1009B00003F3490024EA03038A401A43C26030BDAE
:1009C000B0F1FF3F2DE9F84380460E467FD0414B02
:1009D00000F00F02C0F3031053F82250C1F3831943
:1009E00001F00707FFF70AFEB9F10F0F0CBF032252
:1009F0004A4629460446FFF7B9FF032F5ED8DFE8D1
:100A000007F062642C02032395FAA5F2B2FA82F28F
:100A100003202168520000FA02F221EA020195FA4D
:100A2000A5F2B2FA82F252009340013F0B43012F2C
:100A3000236005D8636832074CBF2B43AB43636028
:100A4000C6F30112012A02D0022A18BF0022294649
:100A50002046BDE8F843FFF79EBF18F0080FC6F325
:100A6000832217D02B0A93FAA3F1B1FA81F193FAFA
:100A7000A3F34FF00F0CB3FA83F3406A89000CFA2A
:100A800001F19B0020EA010102FA03F30B436362C8
:100A90000223B9E795FAA5F3B3FA83F3016A0F20AD
:100AA0009B0000FA03F321EA030195FAA5F3B3FAD8
:100AB00083F39B009A400A432262E9E7D522064964
:100AC000064802F049FF00239EE701239CE7BDE8AA
:100AD000F88300BF508D0008F180000801890008EC
:100AE00038B5431C0D4634D01A4B00F00F02C0F34A
:100AF000031053F82240FFF781FD94FAA4F2B2FAF2
:100B000082F203235200016893400B4094FAA4F24E
:100B10006AB1B2FA82F25200D340013B012B06D8EF
:100B2000EB1E022B436894BF2343A3434360013D64
:100B3000042D0CD8DFE805F00309030B090001229E
:100B40002146BDE83840FFF726BF0222F8E7002221
:100B5000F6E738BD508D00080FB407B5064B05AA5F
:100B60001B680649D868019202F0B1FE03B05DF837
:100B700004EB04B0704700BF04070020FA800008AF
:100B800003683E4A10B59342044636D13C4B5A693D
:100B900042F480425A615A6922F480425A611A6AC8
:100BA00022F480421A6240F2C331B4F91800FFF710
:100BB00007FF40F2C331B4F91A00FFF701FF236ABF
:100BC00023F40073B3F5807F05D140F2C331B4F94B
:100BD0002400FFF7F5FE236A23F48073B3F5007F4A
:100BE00005D140F2C331B4F92600FFF7E9FE002138
:100BF0006268244B43F8221010BD234A93420DD162
:100C00001F4B9A6942F400329A619A6922F40032C9
:100C10009A615A6A22F400325A62C4E71B4A93422C
:100C20000CD1174B9A6942F480229A619A6922F496
:100C300080229A615A6A22F48022EDE7144A934294
:100C40000CD10F4B9A6942F400229A619A6922F4FE
:100C500000229A615A6A22F40022DDE70D4A93428B
:100C6000A1D1074B9A6942F480129A619A6922F4E1
:100C700080129A615A6A22F48012CDE7003801404E
:100C800000380240800A0020004400400048004034
:100C9000004C0040005000404368094A9B01D35873
:100CA00082B01A68120706D5002201921A680192D2
:100CB0005A680192019A1868C0F3401002B0704758
:100CC000400900204368034A9B01D3581868C0F3C9
:100CD000C010704740090020034640681A68144954
:100CE00010B484010A519A6801EB80104260DA68FE
:100CF00082601A69C2605A6902611A6A82610022BE
:100D0000C2848284C2858285C261B3F91A20B2F19D
:100D1000FF3F0AD0B3F9183001330CBF04220C2274
:100D20000B195A6110BC01F01EBA0822F8E700BF87
:100D30004009002010B581600C46FFF7CDFF28B1B7
:100D40002146BDE810400248FFF706BF10BD00BFB6
:100D5000FA8000080F4B984213D0A3F574439842D1
:100D600011D003F5806398420FD003F58063984259
:100D70000DD003F5806398420CBF04204FF0FF3084
:100D80007047002070470120704702207047032001
:100D9000704700BF003801402DE9F0470F4686B08C
:100DA0005A4904463846164601F0C2FF5849824661
:100DB000304601F0BDFF0146504601F095FF534912
:100DC0000546384601F0CAFF51498146304601F0D8
:100DD000C5FF022F80460AD0032E08D002204B49BF
:100DE00001F0A6FF50450CD14A4802F0DFFF4FF05A
:100DF000010A691C256007D141224749474802F092
:100E0000ABFD4FF0000AF4E7454B9D4214D103F5CA
:100E100080331A6A42F480421A621B6A03F48043E8
:100E20000193019B2846FFF795FF606001303FD199
:100E3000A02239493B48E2E73B4B9D420BD103F5E9
:100E4000FA335A6A42F400325A625B6A03F400339E
:100E50000293029BE6E7354B9D420BD103F5F83335
:100E60005A6A42F480225A625B6A03F48023039335
:100E7000039BD7E72E4B9D420BD103F5F6335A6AFD
:100E800042F400225A625B6A03F400230493049B39
:100E9000C8E7284B9D42C5D103F5F4335A6A42F4A2
:100EA00080125A625B6A03F480130593059BB9E7CD
:100EB00049463846FFF784FD01213846FFF710FE0A
:100EC00041463046FFF77CFD30460121FFF708FE22
:100ED00000234FF4E1322046C4E90223C4E904337D
:100EE000236227836683FFF7F7FEBAF1000F0AD06B
:100EF0000122114B21461A604C22104806B0BDE871
:100F0000F04706F0FBB806B0BDE8F087D47F0008D4
:100F1000747F0008248100088E8100089B810008EE
:100F200000380140B78100080044004000480040FC
:100F3000004C004000500040F00A0020A40A0020AD
:100F40001A4BD86810F4005018BF1868184B18BF17
:100F5000C0F38010DA6818BF80F00100910441BF2F
:100F60001B68C3F3801383F001031843114BDA6845
:100F7000920441BF1B68C3F3801383F0010318433D
:100F80000D4BDA68910441BF1B68C3F3801383F0F3
:100F900001031843094BDA68920441BF1B68C3F38D
:100FA000801383F001031843704700BF00380140ED
:100FB0000044004000480040004C00400050004009
:100FC000034A516A536A5B1A8342FBD3704700BFDE
:100FD000000C004010B5002486B01422214601A860
:100FE000009405F07FFF694601A800F00BFF0F2376
:100FF000009901A8CDE9024401930594049400F0FE
:10100000DDFD10B1024802F0D1FE06B010BD00BFF8
:10101000C981000800B58FB00021342201A805F075
:1010200061FF104B01A85A6A42F080525A625B6A13
:1010300003F080530093009B00F0A2FE10230121D7
:101040004FF440420193002301A8CDE90713CDE9F5
:10105000092300F063FB10B1034802F0A7FE0FB0B4
:101060005DF804FB00380240F181000808B502F089
:1010700033FD0121002000F0DDFABDE8084002F058
:1010800041BD000038B5FFF75BFF0446D8B902F058
:1010900023FD00F0DDF801210B4D084600F0E2FAD7
:1010A0002C60FFF7B7FFFFF795FFFFF779F94FF4D3
:1010B000FA70FFF785FF00F0E3F801232B60BDE82D
:1010C000384002F01FBD38BDA00A0020014B18684F
:1010D00000F0B8BEFC0A0020014B186800F0B2BE58
:1010E000F80A0020014B186800F0ACBEF40A00209A
:1010F000074B084A13601A69910707D5DA68920707
:1011000004D56FF002021A6101F036BF704700BFCC
:10111000000C00400C0B002000487047908D000828
:1011200030B589B001A903A800F06CFE00F008FEFC
:10113000204B01905A6A204C42F008025A625A6AC7
:1011400002F008020292029A9A6942F008029A6139
:101150009A6922F008029A61A3F50B3323604FF0DD
:10116000FF33069AE360154BF2B9B0FBF3F3581E58
:101170000025606010482561A560656100F033FFBF
:101180000F4B104A9B68C3F8F8204FF480420E4B77
:101190005A600948294600F04BFF2268D36823F0C3
:1011A0000203D36009B030BD4000B0FBF3F001385A
:1011B000DEE700BF003802400C0B002040420F0069
:1011C00000ED00E0F110000800E100E0044800211B
:1011D0000268D36823F00203D36000F029BF00BF88
:1011E0000C0B0020014B586A704700BF000C0040F8
:1011F0006FF00202044B1B6858631A61DA6842F010
:101200000202DA60704700BF0C0B00206FF0020290
:10121000054B1B681A615A6942F002025A61DA688A
:1012200042F00202DA6070470C0B0020034B1A6890
:10123000D36823F00203D360704700BF0C0B00207B
:101240006FF00202014B1B681A6170470C0B002003
:10125000064B074A1B68596A11605A6B054B1A60A6
:10126000054BDA68054B1A60704700BF0C0B002075
:10127000080B0020040B0020000C0040000B002095
:10128000064B074A1B6812685A62064A12685A637C
:10129000054B1A68054BDA60704700BF0C0B002045
:1012A000080B0020040B0020000B0020000C004065
:1012B0001FB5054B0FCB8DE80F00684604F038F9D9
:1012C000024B186004B010BD988D0008D80B0020A8
:1012D000014B586800F096B84C0B0020014BD868C1
:1012E00000F090B84C0B0020014B586900F08AB810
:1012F0004C0B0020014BD86900F084B84C0B002047
:10130000014B586A00F07EB84C0B0020014BD86AA4
:1013100000F078B84C0B0020014B586B00F072B80D
:101320004C0B0020014BD86B00F06CB84C0B00202C
:10133000014B586C00F066B84C0B0020014BD86C88
:1013400000F060B84C0B0020014B586D00F05AB80B
:101350004C0B0020014BD86D00F054B84C0B002012
:10136000704700000B4B10B51A68032042F00402CE
:101370001A601A6842F002021A6000F00DF80F209D
:10138000FFF7FDF9044618B9FFF7EAFF204610BD44
:101390000124FBE7003C024007490302CA6803F44A
:1013A000E06322F4E0621204120C134343F0BF63C3
:1013B00043F40033CB60704700ED00E010B590F8C7
:1013C0002120022A03D004228263012010BD02687A
:1013D000436B116821F00E011160116821F00101C9
:1013E00011600121D0E90F4202F01C0201FA02F261
:1013F0006260002280F8211080F8202003B1984715
:101400000020E3E770B40424C16B026C0E6802F0A4
:101410001C020368944034421D680ED015F0040F7E
:101420000BD01A6892065EBF1A6822F004021A6096
:10143000C36A4C6073B370BC1847022494403442B2
:1014400012D015F0020F0FD01A68950606D41A684C
:1014500022F00A021A60012380F8213000234C6038
:1014600080F82030836AE5E708249440344211D0A4
:101470002C070FD51C6824F00E041C60012303FA0E
:1014800002F24A60836380F82130002380F8203024
:10149000036BCFE770BC70472DE9F74F00234FF087
:1014A0000F09DFF884E1614C0A6832FA03F502D1D2
:1014B00003B0BDE8F08F012505FA03F818EA02022F
:1014C00000F0A38003264D684FEA430C25F0100A74
:1014D0000AF1FF3706FA0CF6012F6FEA060610D85C
:1014E000876807EA060BCF6807FA0CF747EA0B078D
:1014F0008760476827EA08082F099F4047EA0807DE
:101500004760C768BAF1020F07EA06088F6807FA52
:101510000CF747EA0807C76014D14FEAD30800EB7D
:10152000880803F0070AD8F820704FEA8A0A09FAF7
:101530000AFB27EA0B0B0F6907FA0AF747EA0B07C2
:10154000C8F820700768374005F0030606FA0CF665
:101550003E430660EE0058D5DEF8206023F0030716
:1015600046F00106CEF82060DEF8206007F18047E3
:1015700006F00106019607F5803703F0030C019E83
:101580004FEA8C0CBE6809FA0CF826EA0808284EC7
:10159000B0423CD006F58066B0423AD006F580668F
:1015A000B04238D006F58066B04236D006F5806687
:1015B000B04234D006F58066B04232D006F580667F
:1015C000B04214BF0726062606FA0CF646EA0806BD
:1015D000BE60D743266815F4803F0CBF3E401643DB
:1015E0002660666815F4003F0CBF3E4016436660F7
:1015F000A66815F4801F0CBF3E401643A660E6683F
:10160000AD0254BF3E401643E66001334CE700266E
:10161000DAE70126D8E70226D6E70326D4E7042630
:10162000D2E70526D0E700BF0038024000040140A1
:1016300000000240094A0129136823F0030343EA2A
:1016400000031360064A136923F00403136101D1F8
:1016500030BF704740BF20BF20BF704700700040C0
:1016600000ED00E00B4A0129136823F0030343EA6D
:1016700000031360084B1A6942F004021A6105D195
:1016800030BF1A6922F004021A61704740BF20BFC0
:1016900020BFF6E70070004000ED00E01C4B82B078
:1016A0009A6812F0F00F0CD000221A490B6823F050
:1016B000010313430B60086800F00100504002B0C2
:1016C00070475A6A144912F0805F0FD00A6802F41A
:1016D000C052B2F5C05FE7D1B0F5404FE4D10D4A3A
:1016E000136843F0040313600122DEE75A6A42F0F4
:1016F00080525A625A6A02F080520192019A0A6834
:10170000596A02F4C05221F080515962E1E700BFEA
:1017100000380240003C0240007000402DE9F743D1
:10172000044600285FD09A4B02689E689F68D007E5
:1017300006F00C0607F480374AD42368990700F1B5
:1017400093802368D80635D5002E40F0DD80904F79
:101750003B68990502D5A369002B44D07B68256AB4
:1017600003F460439D4240F2BC802846FFF796FF99
:10177000002838D17B6823F460432B437B607B686F
:10178000E26923F07F4343EA02637B60804B814937
:101790009A684FF400436D0BC2F303128A5C013563
:1017A000AB40D3407C4A13607C4B1868FEF7E7FFE0
:1017B000002831D12368180700F1D5802368590724
:1017C00000F10081636A002B40F06881002023E073
:1017D000082E02D00C2E08D13FB11B689A03ACD55D
:1017E0006368002BA9D1012016E06368684D012BC6
:1017F00015D12B6843F480332B60FEF7C5FF0546F7
:10180000DFF88C81D8F800309B0396D4FEF7BCFF3C
:10181000401B6428F6D9032003B0BDE8F083ABB9C0
:101820002B6823F480332B602B6823F480232B60F8
:10183000FEF7AAFF80462B6898037FF57EAFFEF780
:10184000A3FFA0EB08006428F5D9E4E7052B2B687B
:1018500003D143F480232B60CBE723F480332B6048
:101860002B6823F48023C7E7042E02D00C2E0FD15F
:1018700077B9474A1368990702D5E368012BB2D1BB
:101880005368216923F4F85343EA0123536058E76E
:10189000E268434BB2B101221A60FEF775FF0746BA
:1018A0003B4D2B689A0707D56B68226923F4F853E0
:1018B00043EA02236B6044E7FEF766FFC01B022881
:1018C000EFD9A8E71A60FEF75FFF0546304F3B6887
:1018D0009B077FF536AFFEF757FF401B0228F6D96E
:1018E00099E77B68284623F460432B437B607B6841
:1018F000E26923F07F4343EA02637B60FFF7CEFE99
:1019000000283FF443AF6EE7A269254BE2B1012204
:101910001A62FEF739FF07461D4D2B689A050DD553
:101920006B68226A23F4604313436B606B68E2695F
:1019300023F07F4343EA02636B603BE7FEF724FF3B
:10194000C01B0228E9D966E71A62FEF71DFF0546AB
:101950000F4F3B689B057FF52DAFFEF715FF401B32
:101960000228F6D957E762690D4BDAB10122C3F8B4
:101970008026FEF709FF0546054F7B6B9A073FF56A
:101980001DAFFEF701FF401B0228F6D943E700BF59
:1019900000380240B08D0008300100202C010020EA
:1019A00000004742C3F88026FEF7EEFE0546664F6C
:1019B0007B6B9B077FF502AFFEF7E6FE401B02281C
:1019C000F6D928E7604B5A6AD00029D44FF00108B5
:1019D0005A6A42F080525A625B6A03F08053019364
:1019E000019B5A4D2B68D9051DD5A368564D012B77
:1019F00029D16B6B43F480736B63FEF7C5FE41F234
:101A000088390546504F7B6B9B0541D5B8F1000FD7
:101A10003FF4D8AE4C4A536A23F080535362D1E668
:101A20004FF00008DDE72B6843F480732B60FEF76E
:101A3000ABFE07462B68DA05D7D4FEF7A5FEC01B20
:101A40006428F7D9E7E6ABB96B6B41F2883923F428
:101A500080736B636B6B23F480636B63FEF794FEA0
:101A600007466B6B9805D1D5FEF78EFEC01B484527
:101A7000F7D9D0E6052B6B6B03D143F480636B631E
:101A8000B7E723F480736B636B6B23F48063B3E776
:101A9000FEF77AFE401B4845B5D9BCE60C2E3AD07D
:101AA0000022022B2A4B1A6627D1FEF76DFE06464E
:101AB000254D2B6899011AD4AA68D4E90A3122F479
:101AC0007D020B431343226B13430122AB60204B77
:101AD0001D4D1A66FEF758FE04462B689A013FF525
:101AE00075AEFEF751FE001B0228F6D993E6FEF70D
:101AF0004BFE801B0228DCD98DE6FEF745FE04462E
:101B0000114D2B689B017FF561AEFEF73DFE001B7A
:101B10000228F6D97FE6012B3FF465AE0A4B9868A0
:101B2000A36A00F480329A427FF45DAEE26A00F468
:101B3000701393427FF457AE236B00F44000C01A39
:101B400018BF012068E600BF003802400070004066
:101B50000000474208B5154B9A6802F00C010829AD
:101B60001FD00C2909D004291DD04FF400405B6818
:101B7000C3F342330133984012E09B680C4813F4DE
:101B80008033C2F38341415C14BF0A480A48C2F360
:101B9000815218BF0023A1FB0001013206F014F8A6
:101BA00008BD0448FCE70448FAE700BF00380240DB
:101BB000C08D000800127A000024F4002DE9F041E5
:101BC0000D46044610B90120BDE8F081574B1A6854
:101BD00002F001028A422AD32268960738D4D0073D
:101BE0003ED4524B1A6802F00102AA4200F28C80E5
:101BF0002268510700F19180130707D54C4A2169EB
:101C0000936823F4605343EAC1039360FFF7A2FF94
:101C1000BDE8F041464B474A9B68C3F30313D35CCE
:101C2000D840454B1860454B1868FEF7A8BD012900
:101C300002BF1A6842F004021A601A6822F0010218
:101C40000A431A601B6803F001038B42BBD1C3E750
:101C50003749A0688B6823F0F00303438B60BEE72D
:101C60006168334B02291A681CD112F4003FAAD0D4
:101C70009A6841F2883822F003020A439A60FEF71C
:101C800083FD63680646022B294F18D1BB6803F019
:101C90000C03082BA5D0FEF777FD801B4045F5D936
:101CA000032091E7032902D112F0007FDFE7012929
:101CB00002D112F0020FDAE712F4007FD7E7032B0C
:101CC0000AD1BB6803F00C030C2B8AD0FEF75CFD35
:101CD000801B4045F5D9E3E7012B10D1BB6803F029
:101CE0000C03042B3FF47DAFFEF74EFD801B4045F7
:101CF000F4D9D5E7FEF748FD801B4045D0D8BB6836
:101D000013F00C0FF6D16CE71A6822F001021A608A
:101D10001B68DA077FF56CAF55E70549E0688B680B
:101D200023F4E06303438B6066E700BF003C02409E
:101D300000380240B08D0008300100202C01002046
:101D4000044B054A9B68C3F30223D35C034A106823
:101D5000D840704700380240A88D000830010020AC
:101D6000044B054A9B68C3F3C223D35C034A106843
:101D7000D840704700380240A88D0008300100208C
:101D80001F2303601E4B1A6851034EBF05221A68B9
:101D9000C2F3004242601A6802F00102C2605A684F
:101DA000C2F3042202611A68C2F3002282615A68F7
:101DB000120EC2615A6802F4604202625A6B520506
:101DC0004EBF05235B6BC3F3002383600C4B5A6B40
:101DD00002F0010242611A6812F0807F0CBF0122FA
:101DE000022242629A6802F4803282629A6802F4A5
:101DF0007012C2629B6803F440030363704700BF24
:101E0000003802400F2303600B4B9A6802F0030274
:101E100042609A6802F0F00282609A6802F4E0621E
:101E2000C2609B68DB0803F4E0630361034B1B683B
:101E300003F001030B60704700380240003C024091
:101E400070470000F0B5036804465D689A6885B085
:101E500056064FEA9211C2F3801708D4D60706D56A
:101E60006E0604D5036C05B0BDE8F0401847960730
:101E700004D5280602D52046636CF4E741EA5211E6
:101E800002F4807001F0010101434FEA521656D06E
:101E9000AA0654D577B194F851200021032A48D0DE
:101EA000626D42F0040262650091DA6800929A68FD
:101EB0000092009AF1070CD5626D42F00102626552
:101EC000002202929A6802921A6822F040021A6076
:101ED000029A40B1626D42F00802626500220392EC
:101EE0009A680392039A626D4AB35A6822F0E0023C
:101EF0005A60012284F85120AA0722D05A68E06C67
:101F000022F003025A6040B1104B4363FFF756FAC8
:101F100018B1636D43F040036365A06C78B10B4B5F
:101F20004363FFF74BFA50B1636D43F040036365C1
:101F300005E00191DA6801929B680193019B05B06D
:101F4000F0BD2046FFF77CFFF9E700BF511F0008F6
:101F500008B50023406AC387C386FFF771FF08BD39
:101F6000B0F1804F03680ED0154A90420BD002F5B5
:101F70008062904207D002F58062904203D002F561
:101F80007C42904208D14A6823F070031343CA6828
:101F900023F44073134306E00A4A9042F7D002F557
:101FA00080629042F3D00A6923F0800313430360F8
:101FB0008B68C3620B68836201234361704700BF73
:101FC00000040040000C014010B50124036A01F038
:101FD0001F018C4023EA04030362036A8A401A4308
:101FE000026210BD704710B50446F0B190F8393068
:101FF00003F0FF021BB980F83820FFF7F3FF02233C
:10200000206884F83930211DFFF7AAFF0123002042
:1020100084F83E3084F83A3084F83B3084F83C3021
:1020200084F83D3084F8393010BD0120FCE7000011
:1020300008B529B990F83A30012B1DD001203AE0BB
:10204000042907D190F83B30012BF7D1022380F807
:102050003B3014E0082907D190F83C30012BEDD13A
:10206000022380F83C300AE090F83D30012BE5D1A6
:10207000022380F83D3002E0022380F83A30006805
:102080000122FFF7A1FFB0F1804F0AD00A4B98421E
:1020900007D003F58063984203D003F5803398425C
:1020A00004D1836803F00703062B03D0036843F0D1
:1020B00001030360002008BD0004004010B5044681
:1020C0000268C168136923F440530B4313618368AA
:1020D0000069D1680343606921F416410343E06954
:1020E00021F00C0103430B43D3605369A16923F42E
:1020F00040730B4353611A4B9A4220D1FFF730FED5
:102100001923E1695843D4E90023B1F5004F4FF09A
:10211000640117D15B00B0FBF3F0B0FBF1F401FBFD
:102120001400C3003233B3FBF1F303F007015B008B
:1021300001EB041103F4F8730B44936010BDFFF737
:10214000FFFDDDE79B00B0FBF3F0B0FBF1F401FB1A
:1021500014031B013233B3FBF1F303EB0413ECE77D
:1021600000380140704710B5044640B390F839304C
:1021700003F0FF021BB980F83820FFF7F3FF242398
:10218000226884F83930D368204623F40053D360A2
:10219000FFF794FF236800201A6922F490421A6125
:1021A0005A6922F02A025A61DA6842F40052DA606F
:1021B0002023E06384F8393084F83A3010BD0120E0
:1021C000FCE70000014A024B9A60704700000008DB
:1021D00000ED00E0184A936803F00C03082B28D0A8
:1021E0000BD863B1154B144A15499268C2F3031218
:1021F0008A5CD340134A136070470C2B07D04FF40E
:1022000000435268C2F3423201329340EBE79168D7
:10221000936892680C48D203C1F38341415C54BF78
:10222000064A0A4AC3F3815351430133B1FBF3F326
:10223000D9E7064BD7E700BF003802400024F4007E
:10224000B08D000830010020C08D000800127A0017
:102250000368012200211B69184700220368114608
:102260001B6918476FF01500704780F83413002081
:10227000704780F850120020704790F83403704780
:1022800090F85002704700207047012070476FF0AF
:102290001C0070470A4B10B5036048330446C0F871
:1022A000E430D0F8380310B103685B68984704F550
:1022B000407002F0BDF8204600F0E4FB204610BD5F
:1022C000D48D0008A0F1E400FFF7E4BF10B5044688
:1022D000FFF7E0FF20464FF44F7102F038F8204638
:1022E00010BDA0F1E400FFF7F1BF10B40168D0E920
:1022F0000132541001EB6200D20748BF0A5910BCEA
:1023000048BFD358184700207047012070476FF02E
:102310001C007047D0F8380308B520B100F0B9FAB6
:10232000003818BF012008BD30B5002587B0CDE9C1
:10233000005502AB0ECB044600F05EFB84F836532A
:1023400007B030BD30B50123002587B0CDE900537B
:1023500002AB0ECB044600F04FFB84F8355307B0B8
:1023600030BD10B5044601F0B7FBD4E940239A42D2
:1023700012BF002494F8084184F0010401F0C2FB6C
:10238000204610BD38B500F540750446284602F0D9
:1023900019F804F5FA742046FFF7E3FF20B1284648
:1023A00002F02CF8002038BD284602F027F8012062
:1023B00001F0CFFF284602F005F8ECE7A0F1E400B9
:1023C000FFF7E0BF38B50546E830FFF7CAFF80F0F9
:1023D00001042846E4B2FFF79DFF18B144F400540D
:1023E000204638BD95F8FC32002BF9D144F010049A
:1023F000F6E7A0F1E400FFF7E5BF000038B50446BA
:102400000D4601F069FBD4F800312A78E25401331B
:10241000B3F5807F05D94FF4AF720C490C4801F039
:102420009BFA08BF002394F80821C4F800312AB1B0
:10243000C4F80431BDE8384001F064BBD4F804218D
:102440009A4204BF012384F80831F3E75C82000854
:102450006D82000870B504460E4601F03DFBD4E9DC
:1024600040239A4202D194F80851B5B1E35C33702D
:10247000D4F804310133B3F5807F05D94FF4AF723E
:102480000849094801F068FA4FF0000208BF1346F6
:102490000125C4F8043184F8082101F033FB2846F3
:1024A00070BD00BF5C8200086D820008C36810B573
:1024B0002BB94FF4FD720349034801F04DFABDE812
:1024C00010401847BB820008C682000884B070B56F
:1024D000064605AC06F5497584E80E0001F0FCFAE5
:1024E00094E80F0085E80F00D6F8303343B147F683
:1024F000FF713046FFF766FF10B12846FFF7D6FFA1
:10250000BDE8704004B001F0FDBAA0F1E400FFF7AF
:10251000DDBF08B5D0F830331BB100F54970FFF7C7
:10252000C5FF08BD73B500F1E80504462846FFF76E
:1025300018FF064694F8F03173B9204600F03AFAD5
:1025400050B1204600F0D0FA0DF107018DF80700D8
:102550002846FFF753FFEDE794F836332BB194F894
:10256000F03113B12046FFF7DFFE4EB12846FFF7EA
:10257000F8FE28B9204602B0BDE87040FFF7C9BF99
:1025800002B070BD10B5044686B001F0A5FA94F80B
:10259000BC30BBB194F83633A3B92046FFF7C2FF75
:1025A00094F8F03173B90A4A0193CDE90323094B3A
:1025B0000294009302AB0ECB204600F01DFA0123DB
:1025C00084F8363306B0BDE8104001F09BBA00BF76
:1025D00025250008EB22000838B50446002500F048
:1025E000A5F90F4BC4E97A5523604833C4F8E430A9
:1025F000C4E9BD5584F8F05184F8FC5204F54070EC
:1026000001F0D8FE01232046C4F83053A4F8343337
:1026100084F83653C4F83853FFF7B4FF204638BD6A
:10262000D48D00082DE9F0470646894615469AB331
:1026300000F54077384601F0C5FE06F1E80840464F
:10264000FFF78FFE0446A0B9404609EB040AFFF7E6
:1026500088FE30B9514640460134FFF7FBFEA542E3
:10266000F2D13046FFF78EFF384601F0C7FE204614
:1026700007E096F8343338462BB901F0BFFE6FF00F
:102680000A00BDE8F08701F0B9FE012001F061FE0B
:10269000384601F097FED2E71046F2E7A0F1E400D9
:1026A000FFF7C0BF70B504460D4600F540763046D2
:1026B00001F088FE2946204600F029FA2046FFF75F
:1026C00061FF304601F09AFE002070BDA0F1E400E9
:1026D000FFF7E8BF73B5044690F8FC5200F5FA76B0
:1026E000204600F078F958B130460DF10701FFF7A8
:1026F000B1FE28B120469DF8071000F0F8F9EFE789
:1027000094F835333BB104F5FA70FFF72AFE10B1A7
:102710002046FFF717FE65B194F8FC324BB920460E
:10272000FFF7F8FD28B9204602B0BDE87040FFF77A
:10273000F0BE02B070BDF8B505460C46164600F571
:10274000FA773846FFF70DFE20B1A719BC4205D134
:102750003046F8BD2846FFF7BDFFF2E7284614F8DB
:10276000011B00F0C4F9F1E730B5044687B001F071
:10277000B3F994F8BD30CBB194F83533B3B92046F2
:10278000FFF7A8FF04F5FA70FFF7EBFD70B901251C
:10279000094B0294CDE90330084B0195009302AB3D
:1027A00020460ECB00F028F984F8355307B0BDE879
:1027B000304001F0A7B900BFD5260008EB22000881
:1027C0002DE9F04706460F461546002A43D001F092
:1027D00080F9044630B12A4639463046BDE8F04714
:1027E000FFF7A9BF06F54078404601F0EBFD06F57E
:1027F000FA7996F8FC3273B9A7EB040AA5420AEB02
:10280000040719D996F8FC32B3B939464846FFF7A0
:10281000F5FD0134F2E796F8343393B1404601F008
:10282000EDFD012001F095FD404601F0CBFD96F84D
:10283000FC32002BF2D1DFE73046FFF795FFA542CF
:10284000D7D8404601F0DAFD002C14BF20466FF0C7
:102850000A00BDE8F0871046FBE7A0F1E400FFF7AF
:10286000AFBF70B504460D4600F54076304601F026
:10287000A9FD2946204600F095F92046FFF774FF90
:10288000304601F0BBFD002070BDA0F1E400FFF771
:10289000E8BF836840681B681840003818BF0120F3
:1028A00070477047426810B482B1D0E9033404F035
:1028B000010123B951B161105158CB5801E00029F1
:1028C000F9D1816802EB640010BC184710BC704756
:1028D00070B5044600F14C05D0F8C410284600F04D
:1028E00055FBD4F8D82092B1D4F8C8301BB9D4F82D
:1028F000CC30D8070BD5D4E937314E1004EB61004A
:10290000C90744BFA159CB5894F8D010984728461E
:10291000D4F8B810FEF70EFA22462846BDE87040FB
:102920000149FDF7B9BD00BFFD2A0008F8B5002533
:1029300017464C221C4B044603601C4B0E4643605A
:102940001B4B2946C0E90555C0E907558560C360A2
:10295000858445634564A0F848500061104404F044
:10296000C1FA40F20113C4E92D57C4F8A450A4F8E9
:10297000BC30B3882046A4F8BE30B389C4E93165C1
:10298000A4F8C0304FF6FF73C4E93655C4F8CC50F4
:1029900084F8D050A4F8D230A4F8D430C4F8E05071
:1029A000FFF796FF2046F8BD6C8E0008D12800087E
:1029B000A528000838B5054655F84C3B04461B6869
:1029C00098472846FEF768F90546236820465B6865
:1029D0009847284638BD38B5054655F84C3B04465F
:1029E0001B6898472846FEF76DF905462368204680
:1029F0005B689847284638BD84B02DE9F047054606
:102A000009AE86E80E0003689DF834701B6898478D
:102A100095F8BC303C0103B18FB195F8BD300BB1D6
:102A2000012F0CD096E80F002C44983484E80F0056
:102A30002B682846BDE8F0475B6804B0184701F0F2
:102A40004BF804F198080C9AA844D8F80C3005F11A
:102A50004C0982B10BB901F0F1F996E80F002C4452
:102A6000983484E80F00012239464846FDF720FDDE
:102A700001F048F8DCE70BB101F0F6F90022C8F8E4
:102A80000C20F1E770B50026114B86B00360CDE94C
:102A9000006602AD95E80E000446FFF7ADFF012386
:102AA000CDE90063204695E80E00FFF7A5FF94F8F6
:102AB000BC3013B994F8BD301BB104F14C00FEF7E3
:102AC0005FF8206A08B100F00FFF204606B070BD25
:102AD0006C8E000810B50446FFF7D4FF2046E421B1
:102AE00001F035FC204610BD4C30FDF745BD10B55A
:102AF0000C464C30FDF756FD204610BD00EB011092
:102B0000983008B5C3680BB1FFF7D0FC08BD70B5AD
:102B100004460D4603681B68984794F8BC30AB42E6
:102B200017D0E5B900F0D8FF2A46294604F14C0039
:102B3000FDF7BEFCD4F8A4308BBB00F0E3FF84F8B3
:102B4000BC5035B994F8BD301BB904F14C00FEF708
:102B500017F823682046BDE870405B68184794F872
:102B6000BD304BB9D4E90132511004EB6200D207F9
:102B700044BF6258D358984700F0AEFFD4F8A43051
:102B8000002BDAD004F19800FFF790FC01F056F921
:102B90000122002104F14C00FDF78AFCCDE701F091
:102BA00063F9CAE770B504460D4603681B68984789
:102BB00094F8BD30AB4217D0E5B900F08DFF2A463E
:102BC000012104F14C00FDF773FCD4F8B4308BBB49
:102BD00000F098FF84F8BD5035B994F8BC301BB9AB
:102BE00004F14C00FDF7CCFF23682046BDE870409F
:102BF0005B68184794F8BC304BB9D4E901325110E6
:102C000004EB6200D20744BF6258D358984700F0E3
:102C100063FFD4F8B430002BDAD004F1A800FFF73A
:102C200045FC01F00BF9012204F14C001146FDF7BF
:102C30003FFCCDE701F018F9CAE70000EFF310837D
:102C400072B6054A117831B9DB43044903F0010338
:102C50000B70012313707047DC0B0020DD0B00208C
:102C600008B5EFF31083DB4313F0010304D03622E1
:102C70000549064800F070FE054A1370054B1B78A5
:102C800003B162B608BD00BFFF8200081B830008C5
:102C9000DC0B0020DD0B0020014B1878704700BFD3
:102CA000DC0B0020F8B50F46044615461E46FDF71E
:102CB00037FD01370FD023685EB1A268204601219D
:102CC0001360FDF753FD29462046BDE8F840FDF7A7
:102CD00049BDE268F2E7F8BD13460022FFF7E2BF04
:102CE0000022FFF7F9BF000007B502468A420846F6
:102CF0000AD0531C08D0013005D0002304490548F0
:102D0000009301F081F8104603B05DF804FB00BFAA
:102D10003583000830010180B1F900305A1C01D11F
:102D200018467047834201D1486870470C31F3E779
:102D3000421C13B504460AD0FFF7EEFF431C06D130
:102D40000023224603490448009301F05DF802B0D5
:102D500010BD00BF4683000830010180B1F900308A
:102D60005A1C01D118467047834201D188687047C8
:102D70000C31F3E72DE9F041456895F832706FBBEF
:102D800003685B6898472C6A844227D02B69A9683E
:102D9000041B95F934201C40A1FB04412862B2B108
:102DA0006E6A361941F10001002A19DBC2F12000D8
:102DB000A2F1200326FA02F401FA00F021FA03F34B
:102DC00004431C43D14004FA02F2B21A6A62D5E904
:102DD0000A321B1941EB0201C5E90A31BDE8F08155
:102DE000D5F80C80304642463B4604F0EDFE08FB29
:102DF000106604466E62EAE7824206D98A420BD91F
:102E0000884294BF002001207047884206D98A4238
:102E10008CBF0020012070470120704700207047C0
:102E20002DE9F04146680546336B23F07F4828F0D2
:102E3000FF08B8F1000F5CD1FFF79CFF7368002B0F
:102E400059D0D3E90003D6E90A1281429A4104D34A
:102E50002B68BDE8F0415B6918476C68D4E90A1239
:102E6000401A63EB020CE369D4E90572824273EB0A
:102E70000C031FD3E368A3FB000103FB0C1194F9BF
:102E80003330A3B1A26802F1FF3C1CEB000041F11A
:102E90000001002B1BDBC3F1200CA3F12002D84062
:102EA00001FA0CFC40EA0C0021FA02F210438742BE
:102EB00028BF0746236A1F4423691F40336ABB4269
:102EC00009D140F2C9121149114800F045FD4346AD
:102ED00004F07AFEEBE72B6838461B6998472B68AD
:102EE0005B6898473A460146306AFFF785FF00283D
:102EF000AED1BDE8F0817369306A326918442B683D
:102F000010401B69BDE8F041184700BF93830008DB
:102F1000A583000870B5054600F0DEFDD5E9003454
:102F2000DB68984794F832301BB1BDE8704000F080
:102F3000E9BD012384F831306368A3B12846FFF767
:102F400019FFD4E90A626368D3E9000186428A4125
:102F500009D36A68DB68526863602368002BEBD092
:102F600090689847E8E70023284684F83130FFF757
:102F700057FFDAE770470000024B1B680BB10248AD
:102F800018477047340100207C8E0008B1F90C20EE
:102F9000B1F90410FDF700BF08B5BFF35F8F1C4BFC
:102FA000D3F8902012F47C4FC2F3072104D13B22C6
:102FB0001849194800F0D0FC00221046C3F89420AC
:102FC0008A421FD11022C3F89C20144AC3F8A020C3
:102FD0001322C3F89C20124AC3F8A0201122C3F880
:102FE0009C20104AC3F8A0200F4AC3F89C200F4A27
:102FF000C3F8A0200722C3F89420BFF34F8FBFF37C
:103000006F8F08BDC3F89820C3F8A0000132D7E73E
:1030100000ED00E0FA8300080984000839F0020698
:10302000390702133FF50B13120000803900021319
:10303000102300F007B8202300F004B8302300F07C
:1030400001B840239C46F0B404AE7546E80801D3AD
:10305000EFF309860E4F0FCE0FC70FBC0FC74046C8
:10306000494652465B460FC71DCE3100A60A00D323
:1030700004316E0900D248311FC7EFF30980694659
:10308000EFF3148663C76046014900F077F800BF8C
:10309000180C0020F0B52B4E0024354685B0214693
:1030A00056F8042B2848013400F0FAFC0D2CF6D118
:1030B000AB6C264C02936B6C254801932B6C0093F0
:1030C000D5E90E23696B00F0EBFC2168214800F084
:1030D000E7FCE16AA26AA36AA06A266BE76B000CB0
:1030E000CDE901670090C3F307231B48D2B200F07B
:1030F000D7FCA36A1E0603D5616B184800F0D0FC0C
:10310000A36A180403D5A16B154800F0C9FCEB6C49
:10311000190712D5134800F0C3FC2B6DDA070FD541
:10312000114800F0BDFCEB6C5B074CBF0F4810482A
:1031300005B0BDE8F04000F0B3BC0E4800F0B0FCB4
:103140000D48EEE7180C00201684000800ED00E0A2
:10315000248400087384000881840008D084000857
:10316000DE840008EC840008FB8400082B8500083E
:10317000378500081B8500080885000807B5044648
:103180000D461A48012100F00DFC68BB184800F0FC
:1031900087FC302C19D0402C1CD0202C1FD1154876
:1031A00000F07EFC144C154800F07AFCFFF772FF2B
:1031B000134800F075FC00220C4B1A7000232A46BD
:1031C00020461049009300F01FFE0F4800F068FCF5
:1031D0000E4CE8E70E4800F063FC0E4CE3E70E48A7
:1031E00000F05EFC0D4CDEE70024E7E7E50C002074
:1031F000438500086C8500083E01FF809985000822
:10320000A4850008C38500087B8500083F01FF8076
:10321000848500084001FF808F8500083D01FF8004
:1032200070B505461446184613686FF00042934285
:103230000E46049905D229B103F0AEFC431C05D11A
:10324000206070BD15B1B34238BFE8542368013324
:103250002360F6E72DE9F04F914618228DB09DF8D6
:1032600068300746DDE9164688460DEB020000216E
:103270009DF860A0029303F035FE029B002B0CBF6B
:1032800020233023BAF1010F049324D1002E53DA06
:10329000D346644266EB4606002506AB0393AAF1CB
:1032A0000203DBB20593059B012B48D8BAF1020F4C
:1032B0000CBF374A374A04F00F03D25C240944EAB2
:1032C00006743609039B013503F8012B039354EA76
:1032D0000603E8D10CE0AAF10403D3F1000B4BEB99
:1032E000030B54EA0603D7D1302301258DF818309B
:1032F000BBF1000F48D0029B3BB11B9B4A46009399
:1033000041462D233846FFF78BFF199B01359D421F
:1033100005DA199BAB421DDCBBF1000F0AD0029B02
:103320003BB91B9B4A46009341462D233846FFF785
:1033300077FF013D06AC22E04FF0000BD1E72046BD
:1033400031460A22002304F03FFC303204460E4688
:10335000D2B2B7E71B9B4A4600934146049B3846CE
:10336000FFF75EFF199B013B1993D2E71B9A013DC2
:103370002B5D4146009238464A46FFF751FF002D2B
:10338000F4D10DB0BDE8F08F199B9D42C1DBD1E7B0
:10339000E78E0008D78E00082DE9F04F1C46002369
:1033A00095B083460D4692461393D2B1994218DBED
:1033B00008BF01234FF0000818BF01F1FF3510933B
:1033C0001AF808308BB9BBF1000F0AD0109B43B933
:1033D000139BAB4295BF109A109B0BF803200BF880
:1033E0000530139815B0BDE8F08F252B40F05982B9
:1033F00008F101031AF80320203AD2B20D2A07D8A7
:1034000042F6090121FA02F2D20748BF08F102038D
:103410001AF803202A2A1CD14FF000090133043482
:10342000CDF828901AF803100AEB03022E2940F079
:10343000E28051782A2929D000260A275378501C87
:10344000303BD9B2092940F2D280CAF101031344BA
:103450001FE0302A13D101331AF80320302AFAD0A2
:1034600001224FF000090A925344194611F8012B2A
:10347000303AD0B2092804D9A3EB0A03D2E70022DC
:10348000EFE70A2303FB09290B46EEE754F8046B28
:1034900002331AF80320682A40F0B0800AEB0302D6
:1034A0005278682A00F0BA801C22AE498A5C02F089
:1034B0000F01CB181AF803700E93692F00F2EA80FF
:1034C000572F00F2BC80A7F14603012B00F2E780E2
:1034D000073424F00704F4E8022319461046CDE926
:1034E000082304F089FB6FF000439E420C91079083
:1034F0000D9100F03581002E00F05B810122002348
:103500000F920A220B939E4200F330810C9904F033
:1035100073F802460B46DDE9080103F0E3FE0746B7
:1035200088460F980B9904F067F802460B46384618
:10353000414604F08FF8002207468846DDE908017D
:10354000002304F0F9FA1190002800F01981434695
:103550003A460020844903F0C5FE04F04DFB0F9B62
:10356000884698420B9B0746994108DB0027079B3A
:10357000013B07930C9B63F100030D93B846731C4A
:10358000A9EB030929EAE979079B0D9A134340F057
:103590002B81DDE908010022002304F0CDFA002888
:1035A00000F022811E9B002205930A9BCDE9039324
:1035B000042302930023CDE900232946584613AA89
:1035C000FFF748FE002E00F03B811E9B294600932A
:1035D00058462E2313AAFFF723FE1E9BCDE9007841
:1035E00005930123CDE90363002302939CE0024687
:1035F00007FB063622E76FF000464AE76C2A06D141
:103600000AEB030252786C2A0AD020224DE74C3A8A
:10361000D2B22E2A7FF649AF002248E7722246E74F
:10362000822244E7082B3AD8DFE813F01F01390063
:1036300039000E0139006A00390039006A00A7F12B
:103640005803112B2BD801A151F823F001370008A2
:103650009F3600089F3600089F3600089F360008F6
:103660009F3600089F3600089F3600089F360008E6
:103670009F3600089F3600082F380008BB36000828
:103680009F360008D1340008D13400089F36000866
:10369000BB360008A7F17003D9B20829C2D91E9B16
:1036A000294600935846252313AAFFF7B9FD0E9B20
:1036B000252F18BF43460E93C2E0822A10D107344B
:1036C00024F007031C465B6854F8082B1E990092EF
:1036D00005910A99CDE9039101210291019323E01B
:1036E000112A54F8043B07D0722A15BF1A465AB261
:1036F000D31743F3C013E9E71AB243F3C033E5E746
:10370000822A17D1073424F007021446526854F86D
:10371000083B1E99752F05910A99CDE9039119D19E
:103720000021CDE9003202912946584613AAFFF73D
:1037300091FD85E0512A54F8043B09D0722A03D048
:10374000112A03D00022E4E7DBB2FBE79BB2F9E7E2
:10375000DA17DEE7582F01D10321E2E70221E0E783
:103760000626CBE6A88E00080000E03F0B990F9FCD
:103770005143A7FB027C61440F970B910133C2E6D2
:103780004D4B00223846414603F0AEFD04F034FABA
:103790000F9B884698420B9B07469941FFF6EFAE78
:1037A000079B119F013307930C9B43F100030D937B
:1037B000E4E60C9903F020FF02460B46DDE9080120
:1037C00003F090FD02460B46CDE9082300223A4B58
:1037D00004F0D0F9A0B1079B013307930C9B43F190
:1037E00000030D933746B0461E9B05930A9BCDE917
:1037F000039301230293079B00930D9B0193DCE647
:103800000022DDE908012D4B04F096F960B1079B19
:103810005F1E0C9B63F1000857EA08033FF4C2AE39
:103820000797CDF83480DDE73746B046ACE61E9A00
:1038300014F8043B29460092584613AAFFF7F0FCFF
:103840000E9B03F10108BBE554F8047B3E443B7832
:10385000002BF5D0B742F3D01E9A29460092584665
:1038600013AAFFF7DDFC0137F1E71E9B54F8046B48
:1038700029465846009313AA3023FFF7D1FC1E9B1C
:10388000294600935846782313AAFFF7C9FC1E9BCC
:10389000009605930023CDE9033303230293F31726
:1038A0001CE71E9A29460092584613AAFFF7B8FC57
:1038B000CDF83880C4E700BF0000E03F0000E0BF63
:1038C00013B500240094FFF767FD02B010BD07B5E3
:1038D000134600900A4600206FF00041FFF75CFDA0
:1038E00003B05DF804FB0000024B1B6803B11847EE
:1038F000704700BF6C0C0020036870B501220021E6
:103900001B6904469847051E0DDB2368022200212F
:103910001B69204698470646236829460022204610
:103920001B6998473546284670BD0000034B186850
:1039300018B14FF0FF3101F013BE70473C11002069
:10394000024B186808B101F023BE70473C110020FB
:1039500002F040BC02F042BB07B50B4600920146A4
:103960000022014800F050FA4401FF800346012282
:10397000D3E84F0FC3E8412FC0B20029F8D17047F8
:10398000D0E85F3F5B18C0E8523F002AF8D198B2F8
:103990007047D0E85F3F5B1AC0E8523F002AF8D179
:1039A00098B270470346D3E84F0FC3E8421FC0B236
:1039B000002AF8D17047000000B589B000F08CF8FB
:1039C00000211C2201A803F08DFA052101A8FFF7B0
:1039D00087F90424039B019A0D481A6000F0BCFC8F
:1039E000049B019A0A481A6000F0B6FC013CF1D130
:1039F0000424039B019A07481A6000F0ADFC049B65
:103A0000019A04481A6000F0A7FC013CF1D1E0E7FC
:103A1000F0490200801A060073B5002201460446F0
:103A2000022000F01BFB0D2600F056F80022254670
:103A300014F8013B23B902B0BDE8704000F062B851
:103A40000A2B09D10D2A07D0012202200DF107010E
:103A50008DF8076000F002FB01222946022000F0E9
:103A6000FDFA14F8012CE2E700B5A3B002460B46BC
:103A700001A88421FFF724FF832806D9074B1A6881
:103A80001B79CDF883208DF88730002802DD01A84E
:103A9000FFF7C2FF23B05DF804FB00BFD385000829
:103AA0000FB407B504A951F8040B0191FFF7DCFF2F
:103AB00003B05DF804EB04B07047EFF31080C0432F
:103AC00000F001007047EFF30580003818BF0120B7
:103AD0007047FFF7E1B8000008B5FFF7AFF8064AF6
:103AE0001368591C04D13F2204490548FFF734FFED
:103AF0000133136008BD00BF700C00200A86000867
:103B00001A860008044A136823B1013B13600BB9FD
:103B1000FFF7A6B8704700BF700C002008B50B482F
:103B2000FFF724FF28B1FFF7D7FFBFF34F8F20BF68
:103B3000FDE7FFF7C8FF08B1FFF73EFFFFF7BDFF46
:103B40000028F9D0012000F0DFFB00BFE40C0020CA
:103B50002DE9FF41494C0E462168804601F0C043E3
:103B6000B3F1C04F0CBF4D428DB2C1F307431746AE
:103B700043482A46FFF794FF6FF498731D44132DB2
:103B80000FD8DFE805F00A5255585B615E640E0EEF
:103B90000E0E0E0E0E0E0E0E0E67A1683948FFF7C0
:103BA0007FFF4046FFF738FF61683748FFF778FF2F
:103BB0004EB13648FFF730FF3046FFF72DFF39464C
:103BC0003348FFF76DFFA1683248FFF769FF2368AC
:103BD000314A1A44012A02D9304A93423ED1A2689E
:103BE000002A40D1E368002B45D059682C480029B1
:103BF00008BF0146E0692B4D0390A06902906069FF
:103C00000190206900902848002A18BF05462748DF
:103C10002A46FFF745FF21682548FFF741FF254861
:103C200004B0BDE8F041FFF73BBFA1682248B6E70A
:103C3000A1682248B3E7A1682148B0E7A1682148FC
:103C4000ADE7A1682048AAE7A1682048A7E7A168D6
:103C50001F48A4E71F48FFF723FFA2E71E4A93422D
:103C6000BDD00022BEE792F84C20C2F3C00282F021
:103C70000102D2B2B6E70A49BCE700BF780C0020C7
:103C800060860008B1860008598700086A87000826
:103C90007287000876870008C2FE007F4001FF801F
:103CA0004B860008C2850008558600088A870008F0
:103CB000E387000832880008C7860008D786000816
:103CC000E6860008F98600080D87000821870008AD
:103CD00030870008468700083D01FF8070470000DC
:103CE000294B70B510EA200538BF1D460C468EB032
:103CF00016460021302202A803F0F4F8234B019568
:103D00002B44012B039402D9214B9D4232D1E36B0A
:103D10000293636B08931F4B5B69DA6B0493059204
:103D20005A6B1B6B06920793FFF7D6FE1A4A13686D
:103D30000133012B136009D1184C01AD0FCD0FC415
:103D40000FCD0FC40FCD0FC42B682360144D01ACF1
:103D50000FCC0FC50FCC0FC50FCC0FC52368A5F135
:103D600030002B600F4B1B6853B19847FFF7CAFE1A
:103D70000EB070BD0C4B9D42C9D0029601ABC9E795
:103D8000FFF7ACFFF2E700BF0101FF80C2FE007F3A
:103D90004001FF8040020020E00C0020AC0C00201D
:103DA000780C0020740C00203D01FF800FB407B593
:103DB00001210D487546FFF7F5FD044688B9014617
:103DC0002A460A48FFF78CFF224621460848FFF79B
:103DD000BFFE049805A90191FFF746FE0548FFF7CD
:103DE0001BFEFFF79BFE00BFE50C00200001FF80DB
:103DF0004C880008C185000800207047014B1878E6
:103E0000C0B27047E50C002080B506460C460A4853
:103E10000121F04617461D46FFF7C4FD48B942464A
:103E200039463046FFF75CFF29462046029AFFF7E5
:103E30008FFEFFF773FE00BFE50C002013B5074CA3
:103E400001212046FFF79CFD034628B900902288F7
:103E500003490448FFF7D8FF02B010BDE60C00206C
:103E6000618800082301048013B5094C0121204614
:103E7000FFF78FFD4FF6FF73984206D100230093A2
:103E8000228804490448FFF7BFFF02B010BD00BFFD
:103E9000E60C00208388000824010480034B188866
:103EA00080B2B0FA80F04009704700BFE60C0020F5
:103EB00008B5FFF711FEFFF7F1FF28B1FDF7E2F8B3
:103EC000BDE80840FFF71EBEFDF7D0F8F8E7002078
:103ED0007047002070470000074A084913681844DB
:103EE000884283BF0C22064B4FF0FF3010608CBF1E
:103EF0001A601846704700BF38010020003C0120BE
:103F0000AC290020012070470120704708B500F05F
:103F100001FB08BD08B500F005FB08BD10B504465F
:103F2000037803F00303012B08D0FFF7FFFC23788D
:103F300003F00302012A03D1FFF702FD002010BDA8
:103F40002AB140F2D36204490448FFF705FD43F06B
:103F5000020323700120F2E7D3880008E5880008F7
:103F600008B5037803F00302022A05D040F2DC62B0
:103F700006490748FFF7F0FC23F0030343F0010371
:103F80000370BDE80840FFF7DBBC00BFD388000822
:103F9000038900083F2870B504462CDC174E56F8FC
:103FA00020305A1C25D1022823DCFFF792FF03465C
:103FB000E8B92046FFF78BFF0346C0B9104D2B68C8
:103FC000BFF35B8FDB0711D42846FFF7A7FF68B16B
:103FD0004FF4E1320B490C48FEF7FEFA0B4A0C494C
:103FE0000948FFF78FFF2846FFF7BAFF094B46F84D
:103FF0002430184670BD0023FBE700BF3C010020C1
:10400000E80C0020F88E0008EC0C002028010020AD
:1040100095220008D00D002038B5041E06DA03F002
:1040200029F8092303604FF0FF3038BDFFF7B2FFD6
:104030000025084B43F824500028F0D003685B6942
:104040009847041E04DA03F015F864420460EAE7B6
:104050002846EAE73C010020FFF7DEBF38B50C46F2
:104060001546FFF797FF38B903F004F809230360FA
:104070004FF0FF34204638BD036821462A46DB68EE
:104080009847041EF6DA02F0F5FF64420460EFE799
:1040900038B50C461546FFF77DFF38B902F0EAFF48
:1040A000092303604FF0FF34204638BD03682146E2
:1040B0002A469B689847041EF6DA02F0DBFF64424A
:1040C0000460EFE710B5FFF765FF30B902F0D2FFEB
:1040D000092303600024204610BD0368DB6998476C
:1040E000041EF8DA02F0C6FF64420460F2E7000042
:1040F0002DE9F74F06460F469046FFF7E4FC0546CC
:1041000030B1002332462D492D480093FFF77CFE45
:10411000FFF7D3FC0028F4D0B8F1000F09DA02F061
:10412000A9FF162303604FF0FF34204603B0BDE81B
:10413000F08F3046FFF7C6FF044640B12C464FF0E3
:104140000D09DFF880A01AF806B0A84512DCA045DA
:10415000EBDD3046A8EB04023919FFF77FFF431C63
:10416000E1D00444002CC1BF3F1917F8012C154BB6
:104170009A55DAE77B5D0A2B1BD1BBF10D0F18D0E6
:10418000AC420BDA391930462A1BFFF767FF411C96
:10419000C9D00444A542C8DC0AF806B00122304662
:1041A0000949FFF75BFF421CBDD00028BDD00AF8CB
:1041B000069017F805B00135C7E700BF3A89000837
:1041C0002F0101802810002074890008FFF77ABFB2
:1041D0007FB504460D461646FFF775FC30B1002347
:1041E0002246204920480093FFF70EFEFFF765FCAA
:1041F0000028F4D0002E07DA02F03CFF16230360FB
:104200004FF0FF3004B070BD2046FFF75BFF00B3F6
:10421000164E012220460DF10F01FFF739FF431C16
:10422000F0D00028EED09DF80F300D2B08D1325D74
:104230000A2A0AD01A460A23012032552B70E1E7D8
:104240000A2B04D1325D0D2AF3E73355E1E71A4614
:10425000F2E732462946204604B0BDE87040FFF739
:1042600017BF00BF768900082F0101806810002069
:1042700038B50C461546FFF78DFE38B902F0FAFE48
:10428000092303604FF0FF34204638BD0368214600
:104290002A461B699847041EF6DA02F0EBFE6442D8
:1042A0000460EFE7FFF7E4BF10B5FFF773FE30B926
:1042B00002F0E0FE092303604FF0FF3010BD0368F9
:1042C0009B699847041E04DA02F0D4FE644204603D
:1042D000F2E70020F2E7000004460A4D08B52B681B
:1042E000986802F051FB2B68D86802F04DFB012062
:1042F000FFF7DAFF0220FFF7D7FF0CB1FFF75CFBF7
:10430000FEE700BF0407002008B5FFF7E5FF38B55A
:104310000D46FFF73FFE044630B902F0ABFE09231D
:1043200003604FF0FF3038BD0368DB699847002811
:104330000CBF4FF400434FF400536B6023682046DA
:104340009B6A984728610020EDE7FFF7E0BF01F086
:1043500039BF00F075B80000034A516A536A5B1A0E
:104360008342FBD3704700BF000C00401FB5002301
:1043700003620D4B0446002918BF0B460093031D32
:1043800002931C2303930B236846019301F0D0F89A
:10439000206038B9FFF732FD20B93E2203490448B6
:1043A000FFF7DAFA04B010BDB2890008FA890008F4
:1043B000048A000810B504460021FFF7D7FF204605
:1043C00010BD000037B504464FF0FF31006801F022
:1043D000C7F8054648B1FFF711FD034640B9009004
:1043E0002A4604490448FFF70FFD236A013323627C
:1043F00003B030BD288A000815010280036A13B596
:10440000013B0362006801F0C3F8044648B1FFF7BE
:10441000F5FC034628B90090224603490348FFF7FC
:10442000F3FC02B010BD00BF3A8A000817010280F9
:1044300010B50446006801F0C3F8204610BD000026
:1044400008B538B100F026FA20B1E322024903484A
:10445000FFF782FA08BD00BF7C8A0008108B0008B5
:1044600008B50A4A0A4B1A600A4B9B1A0A4A13609B
:104470000A4A0B4B1A600B4B9B1A0B4A13600B4AF0
:10448000136000F055F800F013F900BF003C012064
:10449000181100200040012014110020B82900202C
:1044A000B0100020003C0120AC100020A81000201B
:1044B00038B50B251C240E4A0E4B104613600E4BCC
:1044C0005560D460936001F033F80C4B0C4A1860CF
:1044D0000C4B1046C2E900350B4BD460936001F0E1
:1044E00027F80A4B1860BDE8384002F0C9BD00BF8C
:1044F000E41000201F8B0008F41000201011002091
:10450000B41000202C8B0008C4100020E010002004
:1045100001F0EABC024B4FF0FF31186801F020B8FF
:1045200010110020014B186801F032B81011002062
:1045300010B50F4C636A43F4E0236362FEF72CFD71
:104540004FF00053A0680B491A1802F1604212683C
:1045500043F8042B8B42F7D14FF00052044B9A6082
:10456000FCF7ECF9FCF732FEBDE8104000F09EB815
:1045700000ED00E0240100207047704708B500F00E
:10458000C9F8FFF7F9FFFFF793FFFFF7F6FFFFF713
:1045900033FCBDE80840FFF7BBBF0000A8B10C4BDF
:1045A0001B68B3FBF0F00138B0F1807F0DD2FF2221
:1045B000084B83F823204FF0E02306221A6158614C
:1045C00000209861044B187070474FF0FF3070471F
:1045D0003001002000ED00E01C110020074B1A788C
:1045E0002AB100221A704FF08062054B5A604FF0DA
:1045F000E022136943F00103136170471C1100208E
:1046000000ED00E04FF0E0231B6970474FF0FF30F2
:10461000704700001EF0040F0CBFEFF30880EFF3AB
:104620000980816911F8021C00291CD101B590E8AC
:104630000F10E047BDE80050CCF80000194B93E89C
:104640000600914208BF70471A6019B12CE9F00FBB
:10465000C1F838C01400A06B6FF0020EB0E8F00F84
:1046600080F309887047104A13689942FAD801B557
:1046700052F821C00FC8E047BDE80050CCF8000058
:10468000704701B500F0FEFFBDE80140EFF3098C73
:10469000D4E701B500F0BAFFBDE80140EFF3098CA3
:1046A000CCE7000054020020E08F000800F008BAB8
:1046B00007B5104B104A002113614FF4805353612A
:1046C0005023D3600D4B0E489360182393610D4B1C
:1046D000136001F059FB034628B9074A0A490090C4
:1046E0000A48FFF791FB00F003FA002308491A4635
:1046F0000093F5E790110020902100204011002048
:104700007D450008368B00083B8B00081D010180A9
:10471000578B00081FB5054B0FCB8DE80F0068467F
:1047200000F006FF024B186004B010BD108F0008A7
:104730003C11002073B506460C461546FFF75EFB9C
:1047400070B9063428BF074B324628BF53F82410EF
:104750004FF00003284638BF03490093FFF754FB8E
:1047600002B070BD208F0008848C000808B500F0EE
:1047700071F80000002307B5411E00930246002394
:10478000042919D8DFE801F003080C1014000122F5
:104790000B490C48FFF738FB02220B490B48F9E79D
:1047A00003220B490B48F5E704220B490B48F1E7BC
:1047B00005220B490B48EDE70B490C48EAE700BF1F
:1047C0007C8B0008250102809D8B00082601028059
:1047D000C28B000827010280F78B000828010280A5
:1047E000328C00082A010280728C000800010280CD
:1047F0000146014AFFF79EBF31010180014AFFF7E0
:1048000099BF00BF32010180014AFFF793BF00BF8B
:1048100033010180014AFFF78DBF00BF38010180DD
:1048200010B501F0C9FA034B1B6813B1BDE8104085
:10483000184710BDB421002008B5FFF74DF9FFF768
:10484000FDFAFFF735FBFFF70FFBBDE80840FFF768
:1048500059B9000008B5024C23689847FCE700BF2F
:104860003C020020014608B530B96FF0030000F0AB
:104870002AF86FF0030008BD132001F0B1F930B938
:104880004FF0FF3000F01FF84FF0FF30F3E700204B
:10489000F1E7000008B5EFF305834BB9EFF31083A0
:1048A00033B9EFF311831BB9DFF814C000DF08BD83
:1048B0006FF0050000F007F86FF00500F7E700BFA4
:1048C0006548000870477047EFF310832BB9EFF38A
:1048D0001180003818BF0120704701207047000088
:1048E00070B5484C217A012900F08A8031B14FF02F
:1048F000FF30FFF77DFF4FF0FF3070BD424D9C222F
:1049000004F1080002F0EEFAD5E90B61EB683046DD
:10491000E3652B8AA4F85430AB68236400F0FEF8FA
:1049200008B1C4F88060D5E90561304600F0F6F8BA
:1049300008B9D4F880606667D5E90761304600F0B1
:10494000EDF808B9D4F88060A667D5E9096130466A
:1049500000F0E4F808B9D4F88060E6676E6B3EB109
:10496000D6E902233046316800F043F9C4F8846088
:10497000AE6B3EB1D6E902233046316800F039F91A
:10498000C4F88860EE6B3EB1D6E902233046316848
:1049900000F02FF9C4F88C602E6C3EB1D6E90223EA
:1049A0003046316800F025F9C4F890606E6C3EB175
:1049B000D6E902233046316800F01BF9C4F8946050
:1049C000AE6C3EB1D6E902233046316800F011F9F1
:1049D000C4F89860EE6C3EB1D6E9022330463168E7
:1049E00000F007F9C4F89C602D6D3DB1D5E90223B4
:1049F0002846296800F0FDF8C4F8A050012323726E
:104A000000207AE740020020708F000838B5214D61
:104A10002B7A012B07D06FF00700FFF7E9FE4FF06C
:104A2000FF34204638BD01F08DF910B94FF0FF304A
:104A3000F3E7FF23184A194982F8223092F822300E
:104A4000D26863F0FF03DB4314BFB3FA83F3202380
:104A5000C2F30222C3F12003934298BF531CFE22EB
:104A600002FA03F30C4ADBB2D3770D4B5868FFF719
:104A700095FD04460028D9D1FFF7C8FD2861FFF74E
:104A8000ADFD084800F0E8FE00F05AFF02232B724B
:104A9000C7E700BF4002002000ED00E09346000899
:104AA000708F00085C020020704738B504460D4640
:104AB000FFF708FF29462046BDE83840FFF75ABEF9
:104AC00008B5FFF7F1FFEFF3058333B16FF0050091
:104AD000FFF78EFE6FF0050008BDFFF7F5FE00281A
:104AE000F4D1DFF808C000DFF6E700BFE1480008B6
:104AF00008B5EFF3058333B16FF00500FFF778FEDB
:104B00006FF0050008BDFFF7DFFE0028F4D1DFF8E5
:104B100008C000DFF6E700BF0D4A0008034610B5E5
:104B200088B1084310F007000DD117290AD91022C7
:104B300019600839CC189C605A60585099684A60CE
:104B4000D860012010BD0020FCE7034670B570B3AB
:104B500069B3032A2BD80F3121F0070600F10804AE
:104B6000214624684D68601A25F00305401B8642E3
:104B700003D920680028F3D170BD5D6818683544FA
:104B80005D60034453F8040C083B854288BF5D60B8
:104B90004B6832431BB94A6001F10800ECE723F08F
:104BA0000303C818CC50426008600830E4E70020D6
:104BB000E2E7034610B580B1C9B1A1F108040021B4
:104BC00000F10802A24209D1506820F0030458689D
:104BD000001B586041B95160012010BD106811469A
:104BE0000028FAD00246EDE713680B60F4E70846A8
:104BF000F3E730B5C0B189B1C2B1CBB10024C0E98F
:104C0000014202FB01F41D190160C36043610561AB
:104C10001846013904D1A41A19510121084630BDA2
:104C2000851805602846F4E70146F7E71146F5E7E1
:104C30001946F3E710B570B100F1140353E8002FE3
:104C400012B9BFF32F8F04E0116843E8001404B1D8
:104C5000F4E70AB9104610BD043050E8003F591C73
:104C600040E8001404B1F8E7F4E730B5F0B1C368E8
:104C70008B421BD803698B4218D900F114031A68C0
:104C80000A60BFF35F8F53E8002F0C689442F6D19F
:104C900043E8001505B1F2E7043050E8003F5A1E22
:104CA00040E8002101B1F8E7002030BD6FF00300BB
:104CB000FBE7EFF310832BB9EFF31180003818BF37
:104CC0000120704701207047D1E9013223B19A6079
:104CD0008A681AB153607047C262F9E7036370478C
:104CE0002DE9F84F8846074638B131B1B0FA80F166
:104CF000B8FA88F30B441F2B08DC6FF00301002087
:104D0000FFF788FD00242046BDE8F88F08F1030670
:104D100026F003060C3606FB00F90AB3D2E901348B
:104D2000DB0202D56FF00601E9E7D36824B1342B2A
:104D300004D06FF00901E2E7002BFAD1D2F800A00D
:104D4000D2E904523DB115F0030301D1914554D984
:104D50006FF00A01D3E7002AFAD11CB193460DE0A7
:104D600092461546264BD3F8A000E0B1FFF762FF4C
:104D70000446A8B1002D3ED14FF0010B204B00227C
:104D8000D86F4946FFF7E1FE1D4B0546B8B9BBF1A8
:104D9000000F05D0D3F8A000214658B1FFF765FFFA
:104DA0006FF00401ABE701223421D3F88000FFF754
:104DB000CCFEDDE7D3F88000FFF7FBFEF0E74A46C4
:104DC000002102F08FF84BF00203FA22A3700023B7
:104DD0002270C4E901A33246C4E90983C4E90B3354
:104DE000E37039462B4604F10C00FFF702FF044B39
:104DF000044A1A6787E70123E7E7002CE5D1B1E70A
:104E000040020020954E000810B500F1280353E839
:104E1000002F12B9BFF32F8F04E0511E43E8001496
:104E200004B1F4E70AB9002010BD0122C06A0028CD
:104E3000F9D0811CD1E84F3FC1E8442F04B1F9E714
:104E4000DBB2002BF0D08068F1E7036B30B5E3B143
:104E50000024CD78DA78AA420FD31A46C1E901249A
:104E60008AB19160A4B16160283050E8003F5A1CBB
:104E700040E8002101B1F8E730BD5A681C46002A1D
:104E8000ECD01346E6E7C162ECE7C1E90133C16249
:104E90000163E9E7F8B5877804468FB30027C56852
:104EA00001462846FFF710FF277005F10C04204645
:104EB000FFF7DBFEAB68002B48D02046FFF7BAFEB9
:104EC0000446002842D0284600F0C6FC06463A4672
:104ED000394600F063FE304600F02EFD6A6A064651
:104EE000416804F10C0002F009F9F923A77023705E
:104EF000B368E37021462846BDE8F840FFF7A5BF38
:104F00008568AB68002BF5D05B78832BF2D12846FF
:104F100000F0A2FC06463A46394600F03FFE304615
:104F200000F00AFD06466A6A406804F10C0102F0CE
:104F3000E5F8B3680BB1E2781A70002323702146BC
:104F400005F10C00BDE8F840FFF78FBEF8BD00008A
:104F50002DE9F0410E4690461F46044618B10378ED
:104F6000FA2B00D141B920466FF00301FFF752FC44
:104F70006FF00300BDE8F0818368C3B15B78832BD9
:104F800015D100F069FC05460122002100F006FE63
:104F9000284600F0D1FC05463146626A406802F0BE
:104FA000ADF8AB680BB183F800800020E2E704F1B4
:104FB0000C00FFF73FFE054678B13146626A0C30BF
:104FC00002F09CF8F9232B70002329462046AB7091
:104FD00085F80380FFF739FFE7E76FB13946932083
:104FE00000F0FEFD10B96FF00100C3E7044B20464E
:104FF000596900F01FFCF6E76FF00200BAE700BF46
:10500000400200202DE9F041884617461E4604461E
:1050100018B10378FA2B00D141B920466FF0030193
:10502000FFF7F8FB6FF00300BDE8F081FFF7ECFE3F
:10503000054600283AD001462046FFF745FE404687
:10504000626A05F10C0102F059F80FB1EB783B7080
:10505000002704F10C06294630462F70FFF705FEA5
:10506000A3680BB90020DFE73046FFF7E3FD0546F4
:105070000028F7D0204600F0EFFB06463946012213
:1050800000F08CFD304600F057FC626A064641682D
:1050900005F10C0002F032F8F923AF702B70B36801
:1050A00029462046EB70FFF7D0FEDBE76EB13146B4
:1050B000832000F095FD10B96FF00100B4E7044BB8
:1050C0002046596900F0B6FBF6E76FF00200ABE747
:1050D0004002002008B5064B08219A6ED86EFFF7F3
:1050E000FFFD044BD864B0FA80F04009404208BD8F
:1050F000708F0008400200202DE9F04106460F465F
:1051000090461C46EFF305834BB196B930466FF0DD
:105110000301FFF77FFB6FF00300BDE8F081FFF7AD
:10512000C8FD0028F1D130462346DFF848C000DF33
:10513000F3E73378FA2BE9D1002FE7D0002CE5D143
:1051400006F10C00FFF776FD054680B13946726A1C
:105150000C3001F0D3FFF9232846C5E901762B7006
:10516000AC7085F8038000F0D5FA2046D5E76FF0E3
:105170000200D2E7514F0008F8B504460F46164624
:105180001D46EFF3058343B18CB920466FF0030150
:10519000FFF740FB6FF00300F8BDFFF78AFD002822
:1051A000F2D120462B46DFF844C000DFF4E7237835
:1051B000FA2BEAD1002FE8D0002DE6D12046FFF7E8
:1051C00023FE054670B100F10C01626A384601F019
:1051D00095FF0EB1EB7833702846EC6000F09AFA38
:1051E0000020D9E76FF00200D6E700BF05500008A5
:1051F000EFF310832BB9EFF31180003818BF0120B3
:10520000704701207047000038B5034658B3D0E915
:10521000005414F48012806806D06FF0060100205C
:10522000FFF7F2FA002038BDDB6820B11C2B24D038
:105230006FF00901F3E7002BFAD1124BD3F8940079
:10524000A0B1FFF7F7FCD0B10123F5228370002352
:1052500004F00F04C0E90233C0E904330270C470E3
:1052600045600376DFE705460446E6E701221C2198
:10527000D3F88000FFF769FCE5E71346E5E76FF038
:105280000401CDE740020020294B70B55D6904465A
:105290000E4635B96FF00801FFF7B6FA4FF0FF3050
:1052A00070BD10B10378F52B07D020466FF00301D5
:1052B000FFF7AAFA6FF00300F2E7037E53B9C0E9E3
:1052C0000353EB6A436103B118610123EC620020D0
:1052D0002376E5E7C278D1070DD5C168A9420AD186
:1052E000FF2B06D16FF01101FFF78EFA6FF002006D
:1052F000D6E70133EBE7002EF8D093070AD5E06834
:1053000095F9203090F920209A4203DA80F8203075
:1053100000F0B4FA3146532000F062FC10B96FF08F
:105320000100BDE72946204600F084FAF7E700BFF8
:10533000400200202F4B70B55A69044632B96FF015
:105340000801FFF761FA4FF0FF3070BD10B103782C
:10535000F52B07D020466FF00301FFF755FA6FF0E9
:105360000300F2E7037E33B96FF01001FFF74CFA48
:105370006FF00200E9E7C168914202D06FF00F01BF
:10538000F4E7013BDBB203760BB10020DDE74369B4
:105390000BB1016919612169E9B14B6192F92130C1
:1053A000D56AD5B982F82030A36883B1204600F0D1
:1053B00053FA06462A46294600F0F0FBF36AC4E990
:1053C0000365636103B11C610123F462237600204D
:1053D00000F0C6FAD9E7D362E0E7E978890706D595
:1053E000A96821B191F920108B42B8BF0B466D69B5
:1053F000D7E700BF4002002010B5044610B1037883
:10540000F52B07D020466FF00301FFF7FDF96FF091
:10541000030010BD037EC3B16369C0680BB122698C
:105420001A612269FAB1536190F92120C36AE3B984
:1054300090F92030934203D080F8202000F01EFA2B
:10544000A068F0B9207600F08BFA00232370A378CF
:10545000DB0706D5124B2146D3F89400D0B1FFF7F5
:1054600004FC0020D5E7C362DEE7D978890706D5BA
:10547000996821B191F920108A42B8BF0A465B6948
:10548000D5E7204600F0E8F900226FF0020100F0B5
:1054900085FBD5E7D3F88000FFF78BFBE1E700BF82
:1054A000400200202DE9F0410446002601270CB9F6
:1054B000BDE8F081E378D4F814801B0712D5A36807
:1054C00026767BB1204600F0C7F90022054611463A
:1054D00000F064FBEB6AC4E90356636103B11C612D
:1054E000EC6227764446E2E710B4C3789B071CD5EC
:1054F000C06890F92120C36ADC78A40709D59C68AC
:105500008C4208BF8C6824B194F92040A242B8BFF5
:1055100022465B69002BEFD190F92030934204D0F2
:1055200080F8202010BC00F0A9B910BC7047000022
:10553000024608B5EFF3058333B100206FF0050193
:10554000FFF762F9002008BDFFF752FE0028F4D1F2
:105550001046DFF808C000DFF5E700BF0952000879
:10556000024608B5EFF305833BB110466FF0050125
:10557000FFF74AF96FF0050008BDFFF739FE002874
:10558000F3D11046DFF804C000DFF5E789520008C8
:10559000024608B5EFF305833BB110466FF00501F5
:1055A000FFF732F96FF0050008BDFFF721FE002874
:1055B000F3D11046DFF804C000DFF5E735530008EB
:1055C000024608B5EFF305833BB110466FF00501C5
:1055D000FFF71AF96FF0050008BDFFF709FE002874
:1055E000F3D11046DFF804C000DFF5E7F9530008F7
:1055F00010B5D0E85F3F5A1C914200D80022C0E8A5
:10560000542F04B1F5E798B210BD000038B51C4C1A
:10561000FEF7F8FFE3680133E36000F069F900206A
:1056200000F09EF9236D03B19847226C32B3A36951
:10563000E16B994203D0D969E36301B9DA61DA69B0
:10564000C2B9237A022B19D1656ABDB1E36B95F912
:10565000202093F920309A4210D1284600F005F915
:10566000E06B00F01DF9284600F06AF9236CE56351
:10567000EB6103E0013ADA61002AE2D038BD00BFF5
:105680004002002038B5214C04F15605B4F85410FE
:10569000D5E85F3F13B9BFF32F8F04E05A1EC5E86A
:1056A000502F00B1F4E79BB25BB31948FFF7A0FF9E
:1056B000E36D53F8200020B30378F13B082BE5D8C5
:1056C00001A252F823F000BFED5600088D560008E5
:1056D000F35600088D5600088D560008F75600084E
:1056E000FB5600088D560008FF560008236E9847A9
:1056F000CCE7636EFBE7A36EF9E7E36EF7E7236F92
:10570000F5E70020BDE8384000F02AB9400200204B
:105710009A02002070B5164C0546B4F8541004F1F6
:105720005602D2E85F3F994202D8BFF32F8F04E0C0
:10573000581CC2E8560F06B1F3E79BB2994205D850
:105740002946BDE870400220FFF7AFB904F15800C8
:10575000FFF74EFFE36D43F82050637A23B94FF013
:105760008052044B5A6070BD0123A372FBE700BF57
:105770004002002000ED00E0EFF310832BB9EFF3BF
:105780001180003818BF01207047012070470000C9
:1057900001230A4A10B590F920104370536A1C3255
:1057A0001BB193F920408C4205DCC0E902329060C5
:1057B00003B1D86010BD1A469B68F1E74002002093
:1057C000014B5869704700BF40020020930710B595
:1057D00002F0010422D400F1280384B153E8000F41
:1057E00000EA01028A4203D0BFF32F8F002005E0B8
:1057F00020EA010243E8002404B1EFE710BD53E8BA
:10580000000F084203D1BFF32F8F002005E020EAEC
:10581000010243E8002404B1F1E7EFE7806A00EAFF
:1058200001031CB1994218BF0020E7E7002B08BF15
:105830000020E3E710B591F9202083681BB193F9AC
:105840002040944205DAC1E90230816003B1D96099
:1058500010BD18469B68F1E70346806882689A602D
:1058600002B1D3600023C3607047C2682AB1836865
:10587000936003B1DA600023C360704710B504463B
:1058800064B12378F12B07D0FFF7EFFF01462046E4
:10589000BDE81040FFF7CEBFE468F1E710BD00009F
:1058A0000123014643700148FFF7C4BF5C0200209A
:1058B00010B5D0E90431C469621C0CD103B159613F
:1058C00042691AB113610023436101E0074A13637F
:1058D0000023C36110BD1BB1DA6959612244DA614A
:1058E0004269002AEED1014AD362F1E7400200206A
:1058F00038B5104DEC6AE4B1E369013BE361C3B92B
:105900006378532B08D1204600E0C0680378F12B60
:10591000FBD02146FFF7E8FD2046FFF7A6FFFFF783
:10592000BFFF246924B1E369002BE9D00023636140
:10593000EC6238BD40020020806B203070470000D0
:105940000223C2784370520758BF032383F314889D
:10595000BFF36F8F014B9861704700BF400200207A
:1059600010B5144B04461A7A5969A0B9022A1FD1FE
:105970005C6AECB194F9202091F920309A4217DD4D
:105980002046FFF772FF0846FFF702FF2046BDE8FA
:105990001040FFF7D5BF022A05D190F9202091F9D8
:1059A00020309A42EFDC2046BDE81040FFF778BF78
:1059B00010BD00BF400200202DE9F74F17460191AE
:1059C000009048B96FF003010020FEF717FF002494
:1059D000204603B0BDE8F08F002A5DD0D2E90184F3
:1059E00008F00603062BEDD018F4801F02D06FF0EC
:1059F0000601E9E7D26824B1502A04D06FF009010A
:105A0000E2E7002AFAD1D7E904562DB1680700D1A0
:105A100016B96FF00B01D7E7D7F81890B9F1000F5E
:105A200006D009F1FF32372A04D96FF00C01CBE719
:105A30004FF018093F683BB9524B1B68D9074CBF60
:105A400048F0040848F0020836B17207E1D14E4B25
:105A5000A6F148029A42DCD864BB4C4BD3F88800CC
:105A600008B3FFF7E7F8044698B14FF0010A45BBC9
:105A7000DFF818B1002E64D1424ADBF88400566D7D
:105A800000285ED0FFF7D6F80546B0B9BAF1000F8E
:105A900061D16FF0040197E7154614464FF01809DD
:105AA00016469046C8E701225021D3F88000FFF740
:105AB0004CF8D8E74FF0000AD9E74AF0100A4AF04C
:105AC000020A40F2F11323800023FD22C4E90233CD
:105AD000C4E90433C4E90633C4E90933C4E90B3526
